:020000040800F2
:1000000000800120AD160008A1040008A304000828
:10001000A5040008A7040008A904000800000000C7
:10002000000000000000000000000000AB04000819
:10003000AD04000800000000AF040008B10400088F
:10004000FD160008FD160008FD160008FD16000844
:10005000FD160008FD160008FD160008FD16000834
:10006000FD160008FD160008FD160008FD16000824
:10007000FD160008FD160008FD160008FD16000814
:10008000FD160008FD160008FD160008000000001F
:10009000000000000000000000000000FD16000845
:1000A000FD160008FD160008FD160008FD160008E4
:1000B000FD160008FD160008FD160008FD160008D4
:1000C000FD160008FD160008FD160008FD160008C4
:1000D000FD160008FD160008FD16000800000000CF
:1000E000FD160008FD160008FD16000800000000BF
:1000F000000000000000000000000000FD160008E5
:1001000000000000FD160008FD160008FD1600089E
:1001100000000000000000000000000000000000DF
:10012000FD160008FD160008FD160008FD16000863
:10013000FD160008000000000000000000000000A4
:10014000000000000000000000000000FD16000894
:10015000FD160008FD160008FD160008FD16000833
:10016000FD160008FD160008000000000000000059
:10017000000000000000000000000000000000007F
:1001800000000000FD160008000000000000000054
:04019000FD16000850
:1001940053B94AB9002908BF00281CBF4FF0FF31EA
:1001A4004FF0FF3000F00CB8ADF1080C6DE904CE4F
:1001B40001F0D0FADDF804E0DDE9022304B0704771
:1001C400704700BF0348044B834202D0034B03B182
:1001D400184770470C0000200C00002000000000AD
:1001E4000548064B1B1AD90F01EBA301491002D095
:1001F400034B03B1184770470C0000200C0000208B
:100204000000000010B5064C237843B9FFF7DAFF6D
:10021400044B13B10448AFF300800123237010BDD5
:100224000C00002000000000141A000808B5054B5B
:100234001BB105490548AFF30080BDE80840FFF74E
:10024400CFBF00BF0000000010000020141A0008F7
:1002540030B58BB00024059406940794089409944F
:100264000194224B1A6B42F004021A631A6B02F0D7
:1002740004020192019A02941A6B42F080021A63FA
:100284001A6B02F080020292029A03941A6B42F0F3
:1002940001021A631A6B02F001020392039A049496
:1002A4001A6B42F002021A631B6B03F002030493FD
:1002B400049B0F4D22462021284601F029F94FF4D2
:1002C400005305934FF404130693079405A90948B2
:1002D40001F03AF820230593012306930794089428
:1002E40005A9284601F030F80BB030BD00380240B3
:1002F400000002400008024072B6FEE708B50A4852
:100304000A4B03604FF4E133436000238360C3600E
:1003140003610C2242618361C36100F0A5FC00B952
:1003240008BDFFF7E9FF00BF28000020004400409B
:1003340000B58FB000230A930B930C930D9308938D
:1003440009930193029303930493059306930793EC
:100354002148224A026043608360C3600361836171
:1003640000F03CFA58BB4FF480530A930AA91A4888
:1003740000F035FB28BB184800F05CFA18BB0023DA
:100384000893099308A9144800F0A8FBE8B960236E
:100394000193002202920392059201A90E4800F0F3
:1003A400A3FAA0B904220DEB02010B4800F09CFA59
:1003B40078B9094800F0B6F80FB05DF804FBFFF710
:1003C4009BFFFFF799FFFFF797FFFFF795FFFFF7F5
:1003D40093FFFFF791FF00BF6C0000200004004072
:1003E40000B595B03022002108A801F086F9002359
:1003F4000393049305930693079301931F4A116C87
:1004040041F080511164126C02F080520192019A01
:1004140002931B490A6822F4404242F400420A60F3
:100424000A6802F440420292029A022108910122CF
:100434000B9210220C920E910F9310924FF4A8730A
:100444001193042312930723139308A800F03CFC90
:1004540080B90F23039302210491002305934FF4E1
:1004640080520692079303A800F098FE20B915B0B5
:100474005DF804FBFFF740FFFFF73EFF0038024042
:100484000070004008B501F0D9F8FFF7A9FFFFF7A5
:10049400DFFEFFF733FFFFF74BFFFEE7FEE7FEE764
:1004A400FEE7FEE7FEE770477047704708B501F0C6
:1004B400DFF808BD00B583B0002100910C4B5A6CE5
:1004C40042F480425A645A6C02F480420092009AC8
:1004D40001911A6C42F080521A641B6C03F0805331
:1004E4000193019B072001F04DF803B05DF804FB74
:1004F400003802400268094B9A4200D0704782B02B
:1005040000230193064B1A6C42F002021A641B6C1E
:1005140003F002030193019B02B070470004004002
:100524000038024000B587B000230193029303937F
:100534000493059302680E4B9A4202D007B05DF80B
:1005440004FB002300930B4B1A6B42F001021A6365
:100554001B6B03F001030093009BC0230193022350
:100564000293059301A9044800F0EEFEE6E700BFFC
:1005740000040040003802400000024000B589B089
:100584000023039304930593069307930268144B83
:100594009A4202D009B05DF804FB0021019103F5F1
:1005A400FA331A6C42F400321A641A6C02F4003200
:1005B4000192019A02911A6B42F001021A631B6BB9
:1005C40003F001030293029B0C230393022304937D
:1005D4000723079303A9034800F0B6FEDAE700BF38
:1005E400004400400000024030B4036A23F00103D9
:1005F4000362026A4568836923F073030C681C4331
:1006040022F002028B6813430B4A904206D04560E5
:1006140084614A684263036230BC704723F0080374
:10062400CA681A4322F0040325F440754A692A4330
:100634008D691543EBE700BF0000014030B4036A45
:1006440023F480730362036A4468C26922F073026C
:100654000D68154323F400738A6843EA02230D4AA4
:10066400904206D04460C5614A68C263036230BCEC
:10067400704723F40063CA6843EA022323F48063C7
:1006840024F440544A6944EA02148A6944EA02148C
:10069400E8E700BF0000014030B4036A23F480534C
:1006A4000362036A4468C26922F4E6420D6842EABE
:1006B400052223F400538D6843EA0533074DA8420D
:1006C40006D04460C2614A680264036230BC704769
:1006D40024F480444D6944EA8514F2E700000140A3
:1006E40010B4036A046A24F001040462846924F0E7
:1006F400F00C4CEA021223F00A030B4382610362FA
:100704005DF8044B704710B4036A23F010030362CE
:100714008469036A24F4704C4CEA023223F0A00387
:1007240043EA0113826103625DF8044B70478368F6
:1007340023F070030B4343F0070383607047704753
:100744000368254A90420ED0B0F1804F0BD0A2F539
:100754007C42904207D002F58062904203D002F5B9
:100764008062904203D123F070034A6813431A4A0B
:1007740090421AD0B0F1804F17D0A2F57C4290423B
:1007840013D002F5806290420FD002F5806290424D
:100794000BD002F59A32904207D002F58062904263
:1007A40003D002F58062904203D123F44073CA68F7
:1007B400134323F080034A69134303608B68C362C5
:1007C4000B688362044B984202D001234361704753
:1007D4000B690363F9E700BF0000014040B310B5A3
:1007E400044690F83D30F3B1022384F83D302146AD
:1007F40051F8040BFFF7A4FF012384F8463084F872
:100804003E3084F83F3084F8403084F8413084F836
:10081400423084F8433084F8443084F8453084F816
:100824003D30002010BD80F83C30FFF763FEDBE76D
:100834000120704740B310B5044690F83D30F3B141
:10084400022384F83D30214651F8040BFFF778FF6A
:10085400012384F8463084F83E3084F83F3084F82D
:10086400403084F8413084F8423084F8433084F8CE
:10087400443084F8453084F83D30002010BD80F8C1
:100884003C30FFF75CFFDBE70120704730B4036ABC
:1008940023F010030362036A4468826922F4E64287
:1008A4000D6842EA052223F020038D6843EA05130C
:1008B4000C4DA84206D0446082614A688263036298
:1008C40030BC704723F08003CD6843EA051323F05E
:1008D400400324F440644D6944EA85048D6944EA84
:1008E4008504E8E70000014038B590F83C30012B5E
:1008F40066D004460D46012380F83C300C2A5AD8B1
:10090400DFE802F0075959591B59595930595959B7
:1009140044000068FFF768FE2268936943F0080307
:1009240093612268936923F00403936122689369B5
:1009340029690B43936100203EE00068FFF7A6FF9E
:100944002268936943F4006393612268936923F4F2
:100954008063936122689369296943EA012393615F
:10096400002029E00068FFF769FE2268D36943F09C
:100974000803D3612268D36923F00403D361226896
:10098400D36929690B43D361002015E00068FFF7A0
:1009940083FE2268D36943F40063D3612268D36978
:1009A40023F48063D3612268D369296943EA01236C
:1009B400D361002000E00120002384F83C3038BDDE
:1009C4000220FCE710B4846824F47F4C42EA03223A
:1009D4000A4342EA0C0282605DF8044B704790F8C7
:1009E4003C30012B78D010B50446012380F83C300C
:1009F400022380F83D300268936823F47F4323F098
:100A0400770393600B68602B4CD029D8402B54D0CB
:100A14000CD9502B22D1CA6849680068FFF760FEE0
:100A240050212068FFF783FE002005E0202B0DD025
:100A340009D9302B0AD00120012384F83D3000234A
:100A440084F83C3010BD0BB1102B05D11946206839
:100A5400FFF76DFE0020EFE70120EDE70120EBE753
:100A6400B3F5805F34D0B3F5005F0CD1CB684A682E
:100A740089680068FFF7A6FF2268936843F48043FF
:100A840093600020D8E7702B24D1CB684A6889682A
:100A94000068FFF797FF2268936843F07703936039
:100AA4000020C9E7CA6849680068FFF72CFE602186
:100AB4002068FFF73CFE0020BEE7CA68496800686A
:100AC400FFF70EFE40212068FFF731FE0020B3E758
:100AD4000020B1E70120AFE70220704790F83C20E6
:100AE400012A35D010B40346012280F83C200222AA
:100AF40080F83D2002685068946820F0700C086803
:100B040040EA0C0050601A681248824212D0B2F1D6
:100B1400804F0FD0A0F57C4082420BD000F580605E
:100B2400824207D000F58060824203D000F59A30FB
:100B3400824204D124F08004496821439160012257
:100B440083F83D20002083F83C005DF8044B704797
:100B5400022070470000014010B504460268136982
:100B640023F44053C1680B431361836802691A4339
:100B740043691A43C3691A430168CB6823F41643D3
:100B840023F00C031343CB600268536923F44073CE
:100B940081690B4353610368314A934206D002F5DD
:100BA4008062934202D000F0AFFB01E000F0BCFB96
:100BB400E369B3F5004F29D00021031849411B18FC
:100BC40041F10001C90041EA5371DB001818636860
:100BD4004FEA83024FEA937341F10001FFF7D8FA19
:100BE400204AA2FB00314909642303FB11031B01C2
:100BF4003233A2FB03235B0903F0F00202EB011280
:100C040003F00F03216813448B6010BD0023021806
:100C140043EB0301121841F10001C90041EA52718A
:100C2400D200101841F10001626892185B41FFF78D
:100C3400AFFA0C4AA2FB00314909642303FB1103F8
:100C4400DB003233A2FB03235B095A0002F4F8727F
:100C540002EB011203F00703216813448B60D4E70D
:100C6400001001401F85EB5158B310B5044690F8AD
:100C74003D300BB3242384F83D302268D36823F439
:100C84000053D3602046FFF767FF2268136923F4FB
:100C9400904313612268536923F02A035361226845
:100CA400D36843F40053D36000202064202384F8E5
:100CB4003D3084F83E3010BD80F83C30FFF75EFCD8
:100CC400D8E7012070470000002800F0E08170B5EB
:100CD40082B00446036813F0010F3BD09F4B9B681E
:100CE40003F00C03042B2CD09C4B9B6803F00C03E7
:100CF400082B21D06368B3F5803F4FD0B3F5A02F04
:100D040052D0964B1A6822F480321A601A6822F480
:100D140080221A606368002B50D000F0B5FC0546B1
:100D24008E4B1B6813F4003F14D100F0ADFC401B44
:100D34006428F5D90320B1E1884B5B6813F4800F74
:100D4400D8D0864B1B6813F4003F03D06368002B94
:100D540000F09F81236813F0020F54D07F4B9B68EF
:100D640013F00C0F3ED07D4B9B6803F00C03082B53
:100D740033D0E368002B68D0794B01221A6000F06D
:100D840083FC0546754B1B6813F0020F54D100F029
:100D94007BFC401B0228F5D903207FE16F4A1368CE
:100DA40043F480331360B5E76C4B1A6842F4802235
:100DB4001A601A6842F480321A60ABE700F064FCEF
:100DC4000546664B1B6813F4003FC3D000F05CFC7F
:100DD400401B6428F5D9032060E1604B5B6813F481
:100DE400800FC6D15D4B1B6813F0020F03D0E3687C
:100DF400012B40F05081594A136823F0F80321690C
:100E040043EAC1031360236813F0080F42D06369F7
:100E14006BB3534B0122C3F8802E00F035FC05461A
:100E24004E4B5B6F13F0020F34D100F02DFC401BCE
:100E34000228F5D9032031E1484A136823F0F80366
:100E4400216943EAC1031360DDE7454B00221A60C0
:100E540000F01AFC0546414B1B6813F0020FD2D078
:100E640000F012FC401B0228F5D9032016E13C4B8C
:100E74000022C3F8802E00F007FC0546374B5B6F59
:100E840013F0020F06D000F0FFFB401B0228F5D937
:100E9400032003E1236813F0040F77D02F4B1B6C5E
:100EA40013F0805F33D1002301932C4B1A6C42F072
:100EB40080521A641B6C03F080530193019B01253B
:100EC400284B1B6813F4807F23D0A368012B34D0F4
:100ED400052B38D0214B1A6F22F001021A671A6FC2
:100EE40022F004021A67A368002B3DD000F0CCFB6B
:100EF40006461A4B1B6F13F0020F46D100F0C4FBD9
:100F0400801B41F288339842F3D90320C6E00025C0
:100F1400D6E7144A136843F48073136000F0B4FBFB
:100F24000646104B1B6813F4807FCED100F0ACFB57
:100F3400801B0228F5D90320B0E0084A136F43F060
:100F440001031367CFE7054B1A6F42F004021A67D7
:100F54001A6F42F001021A67C5E700BF0038024069
:100F6400000047420070004000F08EFB0646524BE2
:100F74001B6F13F0020F08D000F086FB801B41F2B8
:100F840088339842F3D9032088E0EDB9A369002B94
:100F940000F08380484A926802F00C02082A51D07B
:100FA400022B17D0454B00221A6600F06DFB044655
:100FB400414B1B6813F0007F42D000F065FB001B1F
:100FC4000228F5D9032069E03B4A136C23F08053CF
:100FD4001364DBE7394B00221A6600F055FB054623
:100FE400354B1B6813F0007F06D000F04DFB401B0F
:100FF4000228F5D9032051E0E369226A1343626AA7
:1010040043EA8213A26A5208013A43EA0243E26ABB
:1010140043EA0263284A5360284B01221A6600F00F
:1010240033FB0446244B1B6813F0007F06D100F009
:101034002BFB001B0228F5D903202FE000202DE014
:1010440000202BE0012B2BD01B4B5B6803F48001A9
:10105400E269914226D103F03F02216A8A4223D1F8
:10106400616A47F6C0721A40B2EB811F1ED103F4C5
:101074004031A26A5208013AB1EB024F18D103F091
:101084007063E26AB3EB026F14D1002006E0012022
:101094007047012002E0012000E0002002B070BD92
:1010A4000120FBE70120F9E70120F7E70120F5E73C
:1010B4000120F3E70120F1E7003802400000474235
:1010C40008B5334B9B6803F00C03042B5BD0082B4F
:1010D4005BD12F4B5A6802F03F025B6813F4800F18
:1010E4002CD02B4B5868C0F388104FEA401CBCEB43
:1010F400000C6EEB0E0E4FEA8E1343EA9C634FEA2C
:101104008C11B1EB0C0163EB0E03DB0043EA51736A
:10111400C90011EB000C43F10003590200234FEA0C
:101124004C2041EADC51FFF733F8194B5B68C3F3F9
:10113400014301335B00B0FBF3F027E0144B586824
:10114400C0F388104FEA401CBCEB000C6EEB0E0E93
:101154004FEA8E1343EA9C634FEA8C11B1EB0C0106
:1011640063EB0E03DB0043EA5173C90011EB000C7F
:1011740043F10003990200234FEA8C2041EA9C5179
:10118400FFF706F8D1E7034800E0034808BD00BFB5
:101194000038024000127A000024F400002800F015
:1011A4009B8070B50D4604464F4B1B6803F0070344
:1011B4008B4208D2CBB24C4A1370136803F0070376
:1011C4008B4240F08B80236813F0020F17D013F08A
:1011D400040F04D0454A936843F4E05393602368B2
:1011E40013F0080F04D0414A936843F460439360BA
:1011F4003E4A936823F0F003A1680B43936023688D
:1012040013F0010F32D06368012B21D09A1E012AFA
:1012140025D9364A126812F0020F61D033498A6820
:1012240022F0030213438B6000F02EFA06462F4B84
:101234009B6803F00C036268B3EB820F16D000F0D6
:1012440023FA801B41F288339842F0D9032042E00C
:10125400264A126812F4003FE0D101203BE0234A01
:10126400126812F0007FD9D1012034E01E4B1B68B4
:1012740003F00703AB4207D9EAB21B4B1A701B6891
:1012840003F00703AB422DD1236813F0040F06D0FB
:10129400164A936823F4E053E1680B439360236890
:1012A40013F0080F07D0114A936823F460432169AF
:1012B40043EAC1039360FFF703FF0C4B9B68C3F33E
:1012C40003130B4AD35CD8400A4B18600A4B1868C6
:1012D40000F08EF9002070BD012070470120FAE76C
:1012E4000120F8E70120F6E7003C02400038024004
:1012F400341A00080800002004000020014B18687C
:10130400704700BF0800002008B5FFF7F7FF044B43
:101314009B68C3F38223034AD35CD84008BD00BF53
:10132400003802402C1A000808B5FFF7E7FF044B09
:101334009B68C3F34233034AD35CD84008BD00BF63
:10134400003802402C1A000800230F2B00F2D7802B
:1013540070B582B065E085684FEA430E032404FA51
:101364000EF425EA0405CC6804FA0EF42C438460D8
:10137400446824EA02044A68C2F300129A402243F1
:1013840042605CE0DC08083450F8242003F00705D0
:10139400AD004FF00F0E0EFA05FE22EA0E0E0A699A
:1013A400AA4042EA0E0240F824205CE0042200E055
:1013B400002202FA0EF22A430234514D45F8242049
:1013C400504A94686FEA0C0224EA0C054E6816F43D
:1013D400801F01D04CEA04054A4CA560E46802EA87
:1013E40004054E6816F4001F01D04CEA0405454C70
:1013F400E560646802EA04054E6816F4003F01D013
:101404004CEA04053F4C6560246822404D6815F49D
:10141400803F01D04CEA04023A4C226001330F2B86
:101424006BD801229A400C6804EA020C32EA0404E4
:10143400F4D14C6804F00304013C012C8BD94A68B4
:1014440002F00302032A09D0C4685D000322AA4003
:1014540024EA02048A68AA402243C2604A6802F06D
:101464000302022A8ED004684FEA430E032202FAD2
:101474000EF224EA02044A6802F0030202FA0EF2AF
:10148400224302604A6812F4403FC7D0002201920E
:101494001D4A546C44F480445464526C02F48042F7
:1014A4000192019A9C08A51C154A52F8255003F094
:1014B400030E4FEA8E0E0F2202FA0EF225EA0205FF
:1014C400124A90423FF474AF02F5806290420ED00B
:1014D40002F5806290420CD002F5806290420AD0FC
:1014E40002F5806290423FF461AF072261E7012276
:1014F4005FE702225DE703225BE702B070BD70473D
:1015040000380140003C0140003802400000024025
:101514000AB181617047090481617047002808DBC2
:101524000901C9B200F1604000F5614080F8001380
:10153400704700F00F000901C9B2014B19547047FC
:1015440014ED00E000B500F00700C0F1070CBCF199
:10155400040F28BF4FF0040C031D062B0FD9C31E24
:101564004FF0FF3E0EFA0CF021EA000199400EFA0A
:1015740003FE22EA0E0241EA02005DF804FB0023A6
:10158400EEE70000074AD36823F4E0631B041B0C56
:10159400000200F4E060034343F0BF6343F400330C
:1015A400D360704700ED00E010B50446054BD868E1
:1015B400C0F30220FFF7C6FF01462046FFF7AEFF47
:1015C40010BD00BF00ED00E00138B0F1807F0BD208
:1015D4004FF0E0235861054AF02182F823100020DF
:1015E400986107221A6170470120704700ED00E0FE
:1015F40010B504460E4B1A784FF47A73B3FBF2F32A
:101604000C4A1068B0FBF3F0FFF7DEFF68B90F2C4B
:1016140001D901200AE0002221464FF0FF30FFF7F4
:10162400C3FF054B1C60002000E0012010BD00BF7B
:1016340000000020080000200400002008B50B4B27
:101644001A6842F400721A601A6842F480621A60DE
:101654001A6842F480721A600320FFF793FF002097
:10166400FFF7C6FFFEF726FF002008BD003C02403E
:10167400034A1168034B1B780B441360704700BF87
:10168400B400002000000020014B1868704700BF20
:10169400B4000020034AD2F8883043F47003C2F83F
:1016A4008830704700ED00E0DFF834D00D480E4973
:1016B4000E4A002302E0D458C4500433C4188C42A8
:1016C400F9D30B4A0B4C002301E013600432A2420D
:1016D400FBD3FFF7DFFF00F019F8FEF7D3FE7047E6
:1016E40000800120000000200C000020541A000893
:1016F4000C000020B8000020FEE702440346934299
:1017040000D1704703F8011BF9E7000070B50D4DD7
:101714000D4C641BA4100026A64209D10B4D0C4CA1
:1017240000F076F9641BA4100026A64205D170BD12
:1017340055F8043B98470136EEE755F8043B9847C3
:101744000136F2E74C1A00084C1A00084C1A00083B
:10175400501A00082DE9F047089D0C46002B4ED185
:1017640094468C458646B2FA82F262D94AB1C2F1F5
:101774002003914020FA03F30CFA02FC194300FA07
:1017840002FE4FEA1C471FFA8CF6B1FBF7F44FEA4E
:101794001E4307FB141143EA014304FB06F199427B
:1017A4000AD91CEB030304F1FF3080F01381994242
:1017B40040F21081023C6344591A1FFA8EF3B1FBC4
:1017C400F7F007FB101143EA014300FB06F69E42C3
:1017D4000AD91CEB030300F1FF3180F0FD809E4227
:1017E40040F2FA80634402389B1B40EA0440002123
:1017F4001DB1D3400022C5E90032BDE8F0878B4219
:1018040005D90DB1C5E9000100210846F5E7B3FA91
:1018140083F1002946D1A34202D39042C0F0F18063
:10182400861A64EB03030120002DE6D0C5E90063AA
:10183400E3E7002A40F09180A1EB0C044FEA1C4836
:101844001FFA8CF70121B4FBF8F64FEA1E4308FB9C
:10185400164443EA044307FB06F0984208D91CEBFC
:10186400030306F1FF3402D2984200F2CE802646EA
:101874001C1A1FFA8EF3B4FBF8F008FB104443EA79
:10188400044300FB07F79F4208D91CEB030300F154
:10189400FF3402D29F4200F2B1802046DB1B40EAB3
:1018A4000640A5E7C1F120068B4022FA06F71F4344
:1018B40020FA06FC04FA01F343EA0C03F44000FAAC
:1018C40001F8380C4FEA1349B4FBF0FE1FFA87FC09
:1018D40000FB1E4449EA04440EFB0CF9A14502FA3C
:1018E40001F20AD93C190EF1FF3A80F08580A14536
:1018F40040F28280AEF1020E3C44A4EB09041FFACC
:1019040083F9B4FBF0F300FB134449EA044403FBFA
:101914000CFCA44507D93C1903F1FF3068D2A44557
:1019240066D9023B3C4443EA0E40A0FB0293A4EB7D
:101934000C049C42CE469C4652D34FD055B1B8EBD2
:101944000E0364EB0C0404FA06F6CB40CC401E43B1
:10195400C5E900640021BDE8F087C2F1200320FA44
:1019640003F10CFA02FC24FA03F394400C434FEA0B
:101974001C4800FA02FE1FFA8CF7B3FBF8F008FBD0
:101984001031230C43EA014300FB07F1994208D9C3
:101994001CEB030300F1FF362CD299422AD90238FA
:1019A40063445B1AA4B2B3FBF8F108FB113344EAB5
:1019B400034401FB07F3A34208D91CEB040401F11F
:1019C400FF3613D2A34211D902396444E41A41EA1E
:1019D400004138E70446EFE6084605E7C845ADD2BE
:1019E400B9EB020E63EB070C0138A7E73146EDE7CC
:1019F400034698E73046D4E7D6467EE76344023888
:101A04004CE70646234608460EE7023E63442FE7AA
:101A1400F8B500BFF8BC08BC9E467047F8B500BFD7
:081A2400F8BC08BC9E467047A7
:101A2C0000000000010203040000000000000000A0
:081A3C0001020304060708097A
:081A440014FDFF7F010000000A
:041A4C00310200085B
:041A5000090200087F
:0C1A540001000000100000000024F4005D
:04000005080016AD2C
:00000001FF
