:020000040800F2
:1000000000800120B93A00085D1100085F11000866
:10001000611100086311000865110008000000006C
:100020000000000000000000000000006711000850
:1000300069110008000000006B1100086D11000834
:10004000093B0008093B0008093B0008093B000880
:10005000093B0008093B0008093B0008093B000870
:10006000093B0008093B0008093B0008093B000860
:10007000093B0008093B0008093B0008093B000850
:10008000093B0008093B0008093B0008000000008C
:10009000000000000000000000000000093B000814
:1000A000093B0008093B0008093B0008093B000820
:1000B000093B0008093B0008093B0008093B000810
:1000C000093B0008093B0008093B0008093B000800
:1000D000093B0008093B0008093B0008000000003C
:1000E000093B0008093B0008093B0008000000002C
:1000F000000000000000000000000000093B0008B4
:1001000000000000093B0008093B0008093B00080B
:1001100000000000000000000000000000000000DF
:10012000093B0008093B0008093B0008093B00089F
:10013000093B000800000000000000000000000073
:10014000000000000000000000000000093B000863
:10015000093B0008093B0008093B0008093B00086F
:10016000093B0008093B00080000000000000000F7
:10017000000000000000000000000000000000007F
:1001800000000000093B0008000000000000000023
:04019000093B00081F
:1001A000034613F8012B002AFBD1181A01387047B7
:1001B00001F0FF01102A2BDB10F0070F08D010F818
:1001C000013B013A8B422DD010F0070F42B3F6D11C
:1001D000F0B441EA012141EA014122F007047FF035
:1001E00000070023F0E80256083C85EA010586EA8C
:1001F000010685FA47F5A3FA87F586FA47F6A5FAC8
:1002000087F68EB9EED1F0BC01F0FF0102F00702D3
:1002100032B110F8013B013A83EA010313B1F8D17E
:100220000020704701387047002D06BF354603385F
:10023000073815F0010F07D1013015F4807F02BF98
:10024000013015F4C03F01300138F0BC704700BFE9
:1002500081F0004102E000BF83F0004330B54FEA77
:1002600041044FEA430594EA050F08BF90EA020FE4
:100270001FBF54EA000C55EA020C7FEA645C7FEA77
:10028000655C00F0E2804FEA5454D4EB5555B8BF9A
:100290006D420CDD2C4480EA020281EA030382EA0B
:1002A000000083EA010180EA020281EA0303362D9D
:1002B00088BF30BD11F0004F4FEA01314FF4801C70
:1002C0004CEA113102D0404261EB410113F0004F82
:1002D0004FEA03334CEA133302D0524263EB430339
:1002E00094EA050F00F0A780A4F10104D5F1200ED7
:1002F0000DDB02FA0EFC22FA05F2801841F1000132
:1003000003FA0EF2801843FA05F359410EE0A5F105
:1003100020050EF1200E012A03FA0EFC28BF4CF036
:10032000020C43FA05F3C01851EBE37101F00045EC
:1003300007D54FF0000EDCF1000C7EEB00006EEBF9
:100340000101B1F5801F1BD3B1F5001F0CD3490883
:100350005FEA30004FEA3C0C04F101044FEA4452DA
:1003600012F5800F80F09A80BCF1004F08BF5FEA61
:10037000500C50F1000041EB045141EA050130BD41
:100380005FEA4C0C404141EB0101013C28BFB1F553
:10039000801FE9D291F0000F04BF01460020B1FA9E
:1003A00081F308BF2033A3F10B03B3F120020CDA71
:1003B0000C3208DD02F1140CC2F10C0201FA0CF04F
:1003C00021FA02F10CE002F11402D8BFC2F1200CB4
:1003D00001FA02F120FA0CFCDCBF41EA0C0190406A
:1003E000E41AA2BF01EB0451294330BD6FEA0404B3
:1003F0001F3C1CDA0C340EDC04F11404C4F120029E
:1004000020FA04F001FA02F340EA030021FA04F3AF
:1004100045EA030130BDC4F10C04C4F1200220FA06
:1004200002F001FA04F340EA0300294630BD21FA44
:1004300004F0294630BD94F0000F83F4801306BF0A
:1004400081F480110134013D4EE77FEA645C18BFFE
:100450007FEA655C29D094EA050F08BF90EA020F95
:1004600005D054EA000C04BF1946104630BD91EA8D
:10047000030F1EBF0021002030BD5FEA545C05D190
:100480004000494128BF41F0004130BD14F58004CF
:100490003CBF01F5801130BD01F0004545F0FE4143
:1004A00041F470014FF0000030BD7FEA645C1ABF78
:1004B000194610467FEA655C1CBF0B46024650EAAF
:1004C000013406BF52EA033591EA030F41F40021DB
:1004D00030BD00BF90F0000F04BF0021704730B561
:1004E0004FF4806404F132044FF000054FF0000136
:1004F00050E700BF90F0000F04BF0021704730B5F7
:100500004FF4806404F1320410F0004548BF4042CB
:100510004FF000013EE700BF42004FEAE2014FEA20
:1005200031014FEA02701FBF12F07F4393F07F4FFB
:1005300081F06051704732F07F4208BF704793F0FE
:100540007F4F04BF41F40021704730B54FF4607411
:1005500001F0004521F000411CE700BF50EA010214
:1005600008BF704730B54FF000050AE050EA0102BD
:1005700008BF704730B511F0004502D5404261EB2D
:1005800041014FF4806404F132045FEA915C3FF46E
:10059000D8AE4FF003025FEADC0C18BF03325FEA0B
:1005A000DC0C18BF033202EBDC02C2F1200300FABC
:1005B00003FC20FA02F001FA03FE40EA0E0021FAE1
:1005C00002F11444BDE600BF70B54FF0FF0C4CF4CF
:1005D000E06C1CEA11541DBF1CEA135594EA0C0F81
:1005E00095EA0C0F00F0DEF82C4481EA030621EABC
:1005F0004C5123EA4C5350EA013518BF52EA0335F7
:1006000041F4801143F4801338D0A0FB02CE4FF0A8
:100610000005E1FB02E506F00042E0FB03E54FF0D8
:100620000006E1FB03569CF0000F18BF4EF0010ED0
:10063000A4F1FF04B6F5007F64F5407404D25FEACC
:100640004E0E6D4146EB060642EAC62141EA55517F
:100650004FEAC52040EA5E504FEACE2EB4F1FD0CC1
:1006600088BFBCF5E06F1ED8BEF1004F08BF5FEA3F
:10067000500E50F1000041EB045170BD06F00046F1
:1006800046EA010140EA020081EA0301B4EB5C049E
:10069000C2BFD4EB0C0541EA045170BD41F4801196
:1006A0004FF0000E013C00F3AB8014F1360FDEBFBB
:1006B000002001F0004170BDC4F10004203C35DA97
:1006C0000C341BDC04F11404C4F1200500FA05F31A
:1006D00020FA04F001FA05F240EA020001F00042BB
:1006E00021F0004110EBD37021FA04F642EB060131
:1006F0005EEA430E08BF20EAD37070BDC4F10C045B
:10070000C4F1200500FA04F320FA05F001FA04F21E
:1007100040EA020001F0004110EBD37041F100010A
:100720005EEA430E08BF20EAD37070BDC4F1200515
:1007300000FA05F24EEA020E20FA04F301FA05F27D
:1007400043EA020321FA04F001F0004121FA04F225
:1007500020EA020000EBD3705EEA430E08BF20EAF5
:10076000D37070BD94F0000F0FD101F0004640002F
:1007700041EB010111F4801F08BF013CF7D041EAB1
:10078000060195F0000F18BF704703F000465200B5
:1007900043EB030313F4801F08BF013DF7D043EA86
:1007A0000603704794EA0C0F0CEA135518BF95EA3C
:1007B0000C0F0CD050EA410618BF52EA4306D1D1C3
:1007C00081EA030101F000414FF0000070BD50EAE2
:1007D000410606BF1046194652EA430619D094EA6C
:1007E0000C0F02D150EA013613D195EA0C0F05D156
:1007F00052EA03361CBF104619460AD181EA0301AA
:1008000001F0004141F0FE4141F470014FF0000061
:1008100070BD41F0FE4141F4780170BD70B54FF0FC
:10082000FF0C4CF4E06C1CEA11541DBF1CEA13557C
:1008300094EA0C0F95EA0C0F00F0A7F8A4EB05045E
:1008400081EA030E52EA03354FEA013100F0888055
:100850004FEA03334FF0805545EA131343EA12631E
:100860004FEA022245EA111545EA10654FEA0026D3
:100870000EF000419D4208BF964244F1FD0404F58C
:10088000407402D25B084FEA3202B61A65EB0305E8
:100890005B084FEA32024FF480104FF4002CB6EBA5
:1008A000020E75EB030E22BFB61A754640EA0C0025
:1008B0005B084FEA3202B6EB020E75EB030E22BF65
:1008C000B61A754640EA5C005B084FEA3202B6EBA6
:1008D000020E75EB030E22BFB61A754640EA9C0065
:1008E0005B084FEA3202B6EB020E75EB030E22BF35
:1008F000B61A754640EADC0055EA060E18D04FEAF3
:10090000051545EA16754FEA06164FEAC30343EA92
:1009100052734FEAC2025FEA1C1CC0D111F4801F5F
:100920000BD141EA00014FF000004FF0004CB6E758
:1009300011F4801F04BF01430020B4F1FD0C88BFF7
:10094000BCF5E06F3FF6AFAEB5EB030C04BFB6EB02
:10095000020C5FEA500C50F1000041EB045170BDF5
:100960000EF0004E4EEA113114EB5C04C2BFD4EB22
:100970000C0541EA045170BD41F480114FF0000EA6
:10098000013C90E645EA060E8DE60CEA135594EA22
:100990000C0F08BF95EA0C0F3FF43BAF94EA0C0F25
:1009A0000AD150EA01347FF434AF95EA0C0F7FF49A
:1009B00025AF104619462CE795EA0C0F06D152EAEE
:1009C00003353FF4FDAE1046194622E750EA4106D2
:1009D00018BF52EA43067FF4C5AE50EA41047FF4E3
:1009E0000DAF52EA43057FF4EBAE12E74FF0FF3C48
:1009F00006E000BF4FF0010C02E000BF4FF0010C19
:100A00004DF804CD4FEA410C7FEA6C5C4FEA430C91
:100A100018BF7FEA6C5C1BD001B050EA410C0CBFE0
:100A200052EA430C91EA030F02BF90EA020F002042
:100A3000704710F1000F91EA030F58BF994208BFA9
:100A400090422CBFD8176FEAE37040F00100704766
:100A50004FEA410C7FEA6C5C02D150EA013C07D1BD
:100A60004FEA430C7FEA6C5CD6D152EA033CD3D008
:100A70005DF8040B704700BF8446104662468C4602
:100A80001946634600E000BF01B5FFF7B7FF002835
:100A900048BF10F1000F01BD4DF808EDFFF7F4FF5E
:100AA0000CBF012000205DF808FB00BF4DF808EDE9
:100AB000FFF7EAFF34BF012000205DF808FB00BF0C
:100AC0004DF808EDFFF7E0FF94BF012000205DF82E
:100AD00008FB00BF4DF808EDFFF7CEFF94BF0120E3
:100AE00000205DF808FB00BF4DF808EDFFF7C4FFDC
:100AF00034BF012000205DF808FB00BF4FEA410C25
:100B00007FEA6C5C02D150EA013C0AD14FEA430C07
:100B10007FEA6C5C02D152EA033C02D14FF0000044
:100B200070474FF0010070474A0011D212F50012D1
:100B300011D20DD56FF47873B3EB62520ED44FEA35
:100B4000C12343F0004343EA505323FA02F07047B5
:100B50004FF00000704750EA013002D14FF0FF30F3
:100B600070474FF00000704753B94AB9002908BFD9
:100B700000281CBF4FF0FF314FF0FF3000F00CB8E1
:100B8000ADF1080C6DE904CE04F012F8DDF804E0D4
:100B9000DDE9022304B07047704700BF0348044BEF
:100BA000834202D0034B03B1184770470001002075
:100BB00000010020000000000548064B1B1AD90F59
:100BC00001EBA301491002D0034B03B11847704752
:100BD00000010020000100200000000010B5064CBC
:100BE000237843B9FFF7DAFF044B13B10448AFF39E
:100BF00000800123237010BD0001002000000000D0
:100C0000784E000808B5054B1BB105490548AFF300
:100C10000080BDE80840FFF7CFBF00BF0000000024
:100C200004010020784E00082DE9F0418AB000242C
:100C3000059406940794089409940194394B1A6B0F
:100C400042F004021A631A6B02F004020192019A44
:100C500002941A6B42F080021A631A6B02F080024F
:100C60000292029A03941A6B42F001021A631A6B01
:100C700002F001020392039A04941A6B42F00202FA
:100C80001A631B6B03F002030493049B264E224657
:100C90004FF48461304601F0DEFA244D22461021E3
:100CA000284601F0D8FA4FF4005305934FF404138B
:100CB00006930794DFF8788005A9404601F0E0F933
:100CC0004FF484630593012706970794089405A9B8
:100CD000304601F0D5F94FF48063059306940794EC
:100CE00005A9284601F0CCF94FF4A07305930694AA
:100CF000079405A9404601F0C3F94FF480730593AA
:100D00000694079405A9304601F0BAF9102305931B
:100D100006970794089405A9284601F0B1F90AB08E
:100D2000BDE8F081003802400000024000040240AB
:100D30000008024072B6FEE708B50A480A4B036095
:100D40004FF4E133436000238360C36003610C22EE
:100D500042618361C36101F027FC00B908BDFFF760
:100D6000E9FF00BF1C0100200044004000B58FB027
:100D700000230A930B930C930D930893099301930B
:100D80000293039304930593069307931D481E4A09
:100D90000260102242608360C3600361836100F0DF
:100DA000E9FB28BB4FF480530A930AA9154800F0C9
:100DB000E2FCF8B9134800F009FCE8B900230893F5
:100DC000099308A90F4800F0DDFDB8B9602301932D
:100DD0006423029300220392059201A9094800F0BE
:100DE0004FFC68B9074800F069FA0FB05DF804FBE2
:100DF000FFF7A0FFFFF79EFFFFF79CFFFFF79AFFAB
:100E0000FFF798FF600100200004004000B585B0A6
:100E1000002300930193029303931448144A026041
:100E20004FF480324260836003610122027680F8D1
:100E30002030C3620F498162C360C26180F83030E4
:100E4000426101F0F1FC60B900230093012201929C
:100E500002936946054801F013FD20B905B05DF81D
:100E600004FBFFF767FFFFF765FF00BFFC010020F1
:100E7000002001400100000F08B50A480A4B03603A
:100E80000A4B436000238360C3604FF480420261D9
:100E900043618361C361036202F00CFB00B908BDCA
:100EA000FFF748FFA801002000540040801A060008
:100EB00000B595B03022002108A802F047FE0023BB
:100EC0000393049305930693079301931F4A116CB0
:100ED00041F080511164126C02F080520192019A2B
:100EE00002931B490A6822F4404242F400420A601D
:100EF0000A6802F440420292029A022108910122F9
:100F00000B9210220C920E910F9310924FF4A87333
:100F10001193042312930723139308A800F070FD84
:100F200080B90F23039302210491002305934FF40A
:100F300080520692079303A800F0CCFF20B915B0A9
:100F40005DF804FBFFF7F6FEFFF7F4FE0038024001
:100F500000700040F0B5D3B001F01CFAFFF7A8FF15
:100F6000FFF762FEFFF7E8FEFFF700FFFFF74EFF17
:100F7000FFF782FF6F4C22464FF480714FA801F0BB
:100F800087FD224640214CA801F082FDA4F5806433
:100F900022464FF4806149A801F07AFD664E46ADC5
:100FA00032464FF48071284601F072FD009549AB3E
:100FB0004CAA4FA942A801F070FD3FAD1022214676
:100FC000284601F027FD3CAC4FF4806231462046B4
:100FD00001F020FD594E01AB94E8070083E80700BB
:100FE000419B009395E80C00314634A801F017FDB1
:100FF0000021304600F04EFC04E0012220214E4842
:1010000001F029F94E4801F04EFD0028F5D10022EB
:101010002021494801F01FF9002400251BE030463B
:101020003946FFF781FD474AA2FB0032520964238B
:1010300003FB1203444905A802F068FD05A8FFF769
:10104000AFF84FF0FF3382B205A9404801F0DBFA58
:10105000642001F0CBF94FF40051364801F0F4F868
:10106000012825D11EA9364801F072FEDDE932457E
:101070000022374B20462946FFF7A6FA06460F46C0
:101080000022002320462946FFF710FD0028C6D184
:1010900030463946FFF748FD2A4AA2FB0032520982
:1010A000642303FB12032B4905A802F02FFDC5E7BB
:1010B00034A947F2305001F0C8FC4FF47A7001F0C7
:1010C00095F922E01EA91E4801F042FEDDE93245F5
:1010D00000221F4B20462946FFF776FAFFF724FD32
:1010E000184AA2FB00325209642303FB1203194978
:1010F00005A802F00BFD05A8FFF752F84FF0FF33EB
:1011000082B205A9114801F07EFA0022124B204656
:101110002946FFF7CBFC0028D4D12021064801F056
:10112000A0F84FF4FA6001F061F934A801F0A5FCD1
:1011300091E700BF0008024000000240600100206B
:10114000A80100201F85EB51904E00081C010020D3
:1011500000005940A04E000800003240FEE7FEE7C4
:10116000FEE7FEE7FEE770477047704708B501F0FD
:101170002BF908BD00B583B0002100910C4B5A6CCF
:1011800042F480425A645A6C02F480420092009AFF
:1011900001911A6C42F080521A641B6C03F0805368
:1011A0000193019B072001F099F803B05DF804FB5F
:1011B0000038024000B589B00023039304930593DF
:1011C00006930793026803F1804303F590339A4234
:1011D00002D009B05DF804FB0021019103F58C33C6
:1011E0005A6C42F480725A645A6C02F48072019212
:1011F000019A02911A6B42F001021A631B6B03F011
:1012000001030293029B012303930323049303A985
:10121000014800F035FFDCE70000024030B589B03E
:101220000023039304930593069307930268144BDA
:101230009A4201D009B030BD00250195114C236BB5
:1012400043F002032363236B03F002030193019B2A
:101250004FF4407303931223049303230693042350
:10126000079303A9084800F00BFF0295236C43F491
:1012700000132364236C03F400130293029BD9E749
:101280000054004000380240000402400268094B4C
:101290009A4200D0704782B000230193064B1A6C2B
:1012A00042F002021A641B6C03F002030193019BDB
:1012B00002B07047000400400038024000B587B01B
:1012C00000230193029303930493059302680E4B4A
:1012D0009A4202D007B05DF804FB002300930B4B49
:1012E0001A6B42F001021A631B6B03F001030093B7
:1012F000009B4023019302230293059301A9044814
:1013000000F0BEFEE6E700BF0004004000380240E7
:101310000000024000B589B00023039304930593B5
:10132000069307930268144B9A4202D009B05DF805
:1013300004FB0021019103F5FA331A6C42F40032E8
:101340001A641A6C02F400320192019A02911A6B2B
:1013500042F001021A631B6B03F001030293029B2C
:101360000C230393022304930723079303A9034841
:1013700000F086FEDAE700BF0044004000000240B3
:1013800030B4036A23F001030362026A456883698B
:1013900023F073030C681C4322F002028B68134392
:1013A0000B4A904206D0456084614A6842630362FA
:1013B00030BC704723F00803CA681A4322F00403C4
:1013C00025F440754A692A438D691543EBE700BF50
:1013D0000000014030B4036A23F480730362036A9F
:1013E0004468C26922F073020D68154323F4007348
:1013F0008A6843EA02230D4A904206D04460C561E0
:101400004A68C263036230BC704723F40063CA6851
:1014100043EA022323F4806324F440544A6944EAF3
:1014200002148A6944EA0214E8E700BF00000140A0
:1014300030B4036A23F480530362036A4468C269C8
:1014400022F4E6420D6842EA052223F400538D6837
:1014500043EA0533074DA84206D04460C2614A689A
:101460000264036230BC704724F480444D6944EA4E
:101470008514F2E70000014010B4036A046A24F006
:1014800001040462846924F0F00C4CEA021223F097
:101490000A030B43826103625DF8044B704710B48A
:1014A000036A23F0100303628469036A24F4704C16
:1014B0004CEA023223F0A00343EA01138261036283
:1014C0005DF8044B7047836823F070030B4343F0CF
:1014D00007038360704770470368254A90420ED027
:1014E000B0F1804F0BD0A2F57C42904207D002F5BC
:1014F0008062904203D002F58062904203D123F0D3
:1015000070034A6813431A4A90421AD0B0F1804FD0
:1015100017D0A2F57C42904213D002F5806290422F
:101520000FD002F5806290420BD002F59A329042C1
:1015300007D002F58062904203D002F580629042AB
:1015400003D123F44073CA68134323F080034A692C
:10155000134303608B68C3620B688362044B984239
:1015600002D00123436170470B690363F9E700BFB1
:101570000000014040B310B5044690F83D30F3B18F
:10158000022384F83D30214651F8040BFFF7A4FFF5
:10159000012384F8463084F83E3084F83F3084F8E4
:1015A000403084F8413084F8423084F8433084F885
:1015B000443084F8453084F83D30002010BD80F878
:1015C0003C30FFF763FEDBE70120704740B310B506
:1015D000044690F83D30F3B1022384F83D302146B3
:1015E00051F8040BFFF778FF012384F8463084F8A4
:1015F0003E3084F83F3084F8403084F8413084F83D
:10160000423084F8433084F8443084F8453084F81C
:101610003D30002010BD80F83C30FFF75CFFDBE779
:101620000120704730B4036A23F010030362036A99
:101630004468826922F4E6420D6842EA052223F0FA
:1016400020038D6843EA05130C4DA84206D0446080
:1016500082614A688263036230BC704723F0800372
:10166000CD6843EA051323F0400324F440644D6938
:1016700044EA85048D6944EA8504E8E700000140F6
:1016800038B590F83C30012B66D004460D46012356
:1016900080F83C300C2A5AD8DFE802F00759595933
:1016A0001B5959593059595944000068FFF768FED1
:1016B0002268936943F0080393612268936923F0D9
:1016C000040393612268936929690B4393610020A5
:1016D0003EE00068FFF7A6FF2268936943F40063C9
:1016E00093612268936923F480639361226893690C
:1016F000296943EA01239361002029E00068FFF78C
:1017000069FE2268D36943F00803D3612268D36974
:1017100023F00403D3612268D36929690B43D361A1
:10172000002015E00068FFF783FE2268D36943F4C8
:101730000063D3612268D36923F48063D361226894
:10174000D369296943EA0123D361002000E0012025
:10175000002384F83C3038BD0220FCE710B48468D4
:1017600024F47F4C42EA03220A4342EA0C028260DC
:101770005DF8044B704790F83C30012B78D010B5E1
:101780000446012380F83C30022380F83D30026893
:10179000936823F47F4323F0770393600B68602BF7
:1017A0004CD029D8402B54D00CD9502B22D1CA6808
:1017B00049680068FFF760FE50212068FFF783FE4C
:1017C000002005E0202B0DD009D9302B0AD00120B4
:1017D000012384F83D30002384F83C3010BD0BB168
:1017E000102B05D119462068FFF76DFE0020EFE7AA
:1017F0000120EDE70120EBE7B3F5805F34D0B3F5CE
:10180000005F0CD1CB684A6889680068FFF7A6FFC3
:101810002268936843F4804393600020D8E7702BDC
:1018200024D1CB684A6889680068FFF797FF22686F
:10183000936843F0770393600020C9E7CA6849685A
:101840000068FFF72CFE60212068FFF73CFE0020B7
:10185000BEE7CA6849680068FFF70EFE40212068AD
:10186000FFF731FE0020B3E70020B1E70120AFE72A
:101870000220704701F01F014FF0010C0CFA01FC2F
:10188000036A23EA0C030362036A8A401343036278
:101890007047000010B504460846002932D194F87C
:1018A0003E30DBB2013B18BF0123002B63D100287F
:1018B00041D1022384F83E30012201462068FFF71F
:1018C000D9FF23682E4A934245D023682C4A93427D
:1018D00046D0B3F1804F43D0A2F57C4293423FD033
:1018E00002F5806293423BD002F58062934237D08A
:1018F00002F59A32934233D01A6842F001021A601C
:10190000002037E0042908D008290DD094F8413090
:10191000DBB2013B18BF0123C7E794F83F30DBB2CD
:10192000013B18BF0123C0E794F84030DBB2013B14
:1019300018BF0123B9E7042805D0082807D00223DF
:1019400084F84130B8E7022384F83F30B4E702233B
:1019500084F84030B0E75A6C42F400425A64B4E76D
:101960009A6802F00702062A07D01A6842F00102BC
:101970001A60002010BD0120FCE70020FAE700BF3C
:101980000000014090F83C20012A35D010B40346F5
:10199000012280F83C20022280F83D200268506835
:1019A000946820F0700C086840EA0C0050601A68D7
:1019B0001248824212D0B2F1804F0FD0A0F57C4085
:1019C00082420BD000F58060824207D000F5806033
:1019D000824203D000F59A30824204D124F0800480
:1019E000496821439160012283F83D20002083F85B
:1019F0003C005DF8044B7047022070470000014036
:101A0000002800F0E08170B582B00446036813F04E
:101A1000010F3BD09F4B9B6803F00C03042B2CD091
:101A20009C4B9B6803F00C03082B21D06368B3F533
:101A3000803F4FD0B3F5A02F52D0964B1A6822F4B6
:101A400080321A601A6822F480221A606368002BC0
:101A500050D000F0C5FC05468E4B1B6813F4003FC8
:101A600014D100F0BDFC401B6428F5D90320B1E17E
:101A7000884B5B6813F4800FD8D0864B1B6813F437
:101A8000003F03D06368002B00F09F81236813F0B0
:101A9000020F54D07F4B9B6813F00C0F3ED07D4B50
:101AA0009B6803F00C03082B33D0E368002B68D04D
:101AB000794B01221A6000F093FC0546754B1B68B8
:101AC00013F0020F54D100F08BFC401B0228F5D913
:101AD00003207FE16F4A136843F480331360B5E756
:101AE0006C4B1A6842F480221A601A6842F4803201
:101AF0001A60ABE700F074FC0546664B1B6813F4F4
:101B0000003FC3D000F06CFC401B6428F5D90320D3
:101B100060E1604B5B6813F4800FC6D15D4B1B68BE
:101B200013F0020F03D0E368012B40F05081594AB3
:101B3000136823F0F803216943EAC10313602368A3
:101B400013F0080F42D063696BB3534B0122C3F803
:101B5000802E00F045FC05464E4B5B6F13F0020FE4
:101B600034D100F03DFC401B0228F5D9032031E1BF
:101B7000484A136823F0F803216943EAC10313605C
:101B8000DDE7454B00221A6000F02AFC0546414B78
:101B90001B6813F0020FD2D000F022FC401B022879
:101BA000F5D9032016E13C4B0022C3F8802E00F04B
:101BB00017FC0546374B5B6F13F0020F06D000F0A1
:101BC0000FFC401B0228F5D9032003E1236813F022
:101BD000040F77D02F4B1B6C13F0805F33D10023A1
:101BE00001932C4B1A6C42F080521A641B6C03F068
:101BF00080530193019B0125284B1B6813F4807FC0
:101C000023D0A368012B34D0052B38D0214B1A6F79
:101C100022F001021A671A6F22F004021A67A36801
:101C2000002B3DD000F0DCFB06461A4B1B6F13F077
:101C3000020F46D100F0D4FB801B41F2883398425A
:101C4000F3D90320C6E00025D6E7144A136843F40D
:101C50008073136000F0C4FB0646104B1B6813F43E
:101C6000807FCED100F0BCFB801B0228F5D9032079
:101C7000B0E0084A136F43F001031367CFE7054B49
:101C80001A6F42F004021A671A6F42F001021A67D3
:101C9000C5E700BF00380240000047420070004026
:101CA00000F09EFB0646524B1B6F13F0020F08D04C
:101CB00000F096FB801B41F288339842F3D9032051
:101CC00088E0EDB9A369002B00F08380484A926850
:101CD00002F00C02082A51D0022B17D0454B0022EB
:101CE0001A6600F07DFB0446414B1B6813F0007F31
:101CF00042D000F075FB001B0228F5D9032069E0F3
:101D00003B4A136C23F080531364DBE7394B00220A
:101D10001A6600F065FB0546354B1B6813F0007F23
:101D200006D000F05DFB401B0228F5D9032051E0EE
:101D3000E369226A1343626A43EA8213A26A520881
:101D4000013A43EA0243E26A43EA0263284A5360E3
:101D5000284B01221A6600F043FB0446244B1B6803
:101D600013F0007F06D100F03BFB001B0228F5D9E1
:101D700003202FE000202DE000202BE0012B2BD0B2
:101D80001B4B5B6803F48001E269914226D103F0AA
:101D90003F02216A8A4223D1616A47F6C0721A4023
:101DA000B2EB811F1ED103F44031A26A5208013AFE
:101DB000B1EB024F18D103F07063E26AB3EB026F2C
:101DC00014D1002006E001207047012002E001202C
:101DD00000E0002002B070BD0120FBE70120F9E720
:101DE0000120F7E70120F5E70120F3E70120F1E703
:101DF000003802400000474208B5334B9B6803F0AF
:101E00000C03042B5BD0082B5BD12F4B5A6802F0DC
:101E10003F025B6813F4800F2CD02B4B5868C0F343
:101E200088104FEA401CBCEB000C6EEB0E0E4FEA24
:101E30008E1343EA9C634FEA8C11B1EB0C0163EB08
:101E40000E03DB0043EA5173C90011EB000C43F1B0
:101E50000003590200234FEA4C2041EADC51FEF70F
:101E600083FE194B5B68C3F3014301335B00B0FB96
:101E7000F3F027E0144B5868C0F388104FEA401C79
:101E8000BCEB000C6EEB0E0E4FEA8E1343EA9C6324
:101E90004FEA8C11B1EB0C0163EB0E03DB0043EA5C
:101EA0005173C90011EB000C43F1000399020023A8
:101EB0004FEA8C2041EA9C51FEF756FED1E70348D9
:101EC00000E0034808BD00BF0038024000127A005D
:101ED0000024F400002800F09B8070B50D460446F5
:101EE0004F4B1B6803F007038B4208D2CBB24C4A1E
:101EF0001370136803F007038B4240F08B80236854
:101F000013F0020F17D013F0040F04D0454A936862
:101F100043F4E0539360236813F0080F04D0414A60
:101F2000936843F4604393603E4A936823F0F00360
:101F3000A1680B439360236813F0010F32D06368EC
:101F4000012B21D09A1E012A25D9364A126812F097
:101F5000020F61D033498A6822F0030213438B6079
:101F600000F03EFA06462F4B9B6803F00C036268B4
:101F7000B3EB820F16D000F033FA801B41F28833A6
:101F80009842F0D9032042E0264A126812F4003F3A
:101F9000E0D101203BE0234A126812F0007FD9D142
:101FA000012034E01E4B1B6803F00703AB4207D946
:101FB000EAB21B4B1A701B6803F00703AB422DD12A
:101FC000236813F0040F06D0164A936823F4E053F5
:101FD000E1680B439360236813F0080F07D0114AA0
:101FE000936823F46043216943EAC1039360FFF7D8
:101FF00003FF0C4B9B68C3F303130B4AD35CD8401D
:102000000A4B18600A4B186800F09EF9002070BD5A
:10201000012070470120FAE70120F8E70120F6E7E8
:10202000003C024000380240B84E00080800002082
:1020300004000020014B1868704700BF0800002012
:1020400008B5FFF7F7FF044B9B68C3F38223034AED
:10205000D35CD84008BD00BF00380240B04E000835
:1020600008B5FFF7E7FF044B9B68C3F34233034A0D
:10207000D35CD84008BD00BF00380240B04E000815
:1020800000230F2B00F2D78070B582B065E0856821
:102090004FEA430E032404FA0EF425EA0405CC6843
:1020A00004FA0EF42C438460446824EA02044A686B
:1020B000C2F300129A40224342605CE0DC0808341C
:1020C00050F8242003F00705AD004FF00F0E0EFA74
:1020D00005FE22EA0E0E0A69AA4042EA0E0240F804
:1020E00024205CE0042200E0002202FA0EF22A43DF
:1020F0000234514D45F82420504A94686FEA0C028E
:1021000024EA0C054E6816F4801F01D04CEA040541
:102110004A4CA560E46802EA04054E6816F4001F04
:1021200001D04CEA0405454CE560646802EA040508
:102130004E6816F4003F01D04CEA04053F4C656040
:10214000246822404D6815F4803F01D04CEA040217
:102150003A4C226001330F2B6BD801229A400C6855
:1021600004EA020C32EA0404F4D14C6804F00304DB
:10217000013C012C8BD94A6802F00302032A09D0E2
:10218000C4685D000322AA4024EA02048A68AA40C7
:102190002243C2604A6802F00302022A8ED0046819
:1021A0004FEA430E032202FA0EF224EA02044A68BE
:1021B00002F0030202FA0EF2224302604A6812F4AD
:1021C000403FC7D0002201921D4A546C44F4804421
:1021D0005464526C02F480420192019A9C08A51C3E
:1021E000154A52F8255003F0030E4FEA8E0E0F22C7
:1021F00002FA0EF225EA0205124A90423FF474AF49
:1022000002F5806290420ED002F5806290420CD0BE
:1022100002F5806290420AD002F5806290423FF45B
:1022200061AF072261E701225FE702225DE7032237
:102230005BE702B070BD704700380140003C0140D0
:1022400000380240000002400369194201D0012019
:102250007047002070470AB18161704709048161AD
:102260007047436901EA030221EA030141EA02419E
:1022700081617047002808DB0901C9B200F16040A4
:1022800000F5614080F80013704700F00F0009016D
:10229000C9B2014B1954704714ED00E000B500F0CD
:1022A0000700C0F1070CBCF1040F28BF4FF0040C6D
:1022B000031D062B0FD9C31E4FF0FF3E0EFA0CF084
:1022C00021EA000199400EFA03FE22EA0E0241EAD9
:1022D00002005DF804FB0023EEE70000074AD36824
:1022E00023F4E0631B041B0C000200F4E0600343D2
:1022F00043F0BF6343F40033D360704700ED00E068
:1023000010B50446054BD868C0F30220FFF7C6FF9E
:1023100001462046FFF7AEFF10BD00BF00ED00E014
:102320000138B0F1807F0BD24FF0E0235861054AAD
:10233000F02182F823100020986107221A6170476B
:102340000120704700ED00E010B504460E4B1A78EE
:102350004FF47A73B3FBF2F30C4A1068B0FBF3F05E
:10236000FFF7DEFF68B90F2C01D901200AE0002237
:1023700021464FF0FF30FFF7C3FF054B1C600020E4
:1023800000E0012010BD00BF000000200800002078
:102390000400002008B50B4B1A6842F400721A6062
:1023A0001A6842F480621A601A6842F480721A60F5
:1023B0000320FFF793FF0020FFF7C6FFFEF7DAFECA
:1023C000002008BD003C0240034A1168034B1B7803
:1023D0000B441360704700BF44020020000000203F
:1023E000014B1868704700BF4402002038B504460E
:1023F000FFF7F6FF0546B4F1FF3F02D0044B1B7810
:102400001C44FFF7EDFF401BA042FAD338BD00BFCC
:102410000000002010B504460268136923F44053FD
:10242000C1680B431361836802691A4343691A4305
:10243000C3691A430168CB6823F4164323F00C03E5
:102440001343CB600268536923F4407381690B43E3
:1024500053610368314A934206D002F58062934289
:1024600002D0FFF7EDFD01E0FFF7FAFDE369B3F5F8
:10247000004F29D00021031849411B1841F10001E8
:10248000C90041EA5371DB00181863684FEA830200
:102490004FEA937341F10001FEF766FB204AA2FB6D
:1024A00000314909642303FB11031B013233A2FBF2
:1024B00003235B0903F0F00202EB011203F00F03A8
:1024C000216813448B6010BD0023021843EB030105
:1024D000121841F10001C90041EA5271D2001018EE
:1024E00041F10001626892185B41FEF73DFB0C4A26
:1024F000A2FB00314909642303FB1103DB003233E3
:10250000A2FB03235B095A0002F4F87202EB0112EA
:1025100003F00703216813448B60D4E700100140E7
:102520001F85EB512DE9F84305460F46164699469F
:10253000DDF820802B681C6837EA04040CBF0124F6
:102540000024B4422DD1B8F1FF3FF3D0B8F1000F11
:1025500005D0FFF745FFA0EB09004045EAD92A68FE
:1025600002F10C0353E8003F23F4D0730C3242E82D
:1025700000310029F3D12A6802F1140353E8003F27
:1025800023F00103143242E800310029F3D1202363
:1025900085F83D3085F83E30002385F83C30032037
:1025A00000E00020BDE8F88358B310B5044690F869
:1025B0003D300BB3242384F83D302268D36823F4E4
:1025C0000053D3602046FFF725FF2268136923F4E8
:1025D000904313612268536923F02A0353612268F0
:1025E000D36843F40053D36000202064202384F890
:1025F0003D3084F83E3010BD80F83C30FEF78AFE56
:10260000D8E7012070472DE9F04182B01E4690F8CE
:102610003D30DBB2202B54D104460D4690460029B4
:1026200053D0002A53D090F83C30012B51D00123D5
:1026300080F83C3000230364212380F83D30FFF70D
:10264000CFFE0746A4F82480A4F82680A368B3F53B
:10265000805F05D04FF00008002384F83C3012E082
:10266000236913B14FF00008F6E7A8460025F3E709
:1026700038F8023B2268C3F308035360E28C92B23D
:10268000013A92B2E284E38C9BB273B100963B466E
:10269000002280212046FFF745FFE0B9002DE7D05A
:1026A00015F8012B23685A60E8E700963B460022A4
:1026B00040212046FFF736FF78B9202384F83D30CB
:1026C00000E0022002B0BDE8F0810120FAE701201D
:1026D000F8E70220F6E70320F4E70320F2E7000022
:1026E000034AD2F8883043F47003C2F88830704748
:1026F00000ED00E04A4B5A6822F440325A605A68B2
:1027000041680A435A600268536823F48073536037
:1027100002685368016943EA012353600268536801
:1027200023F0407353600268536881680B43536021
:102730000268936823F40063936002689368C16839
:102740000B439360826A374B9A4257D00268936872
:1027500023F07063936002689368816A0B4393600F
:102760000268936823F04053936002689368C16ADB
:102770000B4393600268936823F00203936002683E
:102780009368017E43EA4103936090F82030002B68
:102790003FD00268536843F4006353600268536893
:1027A00023F46043536001684B68426A013A43EA8C
:1027B00042334B600268D36A23F47003D36201682A
:1027C000CB6AC269013A43EA0253CB62026893685A
:1027D00023F4007393600268936890F8301043EA22
:1027E000412393600268936823F4806393600268D6
:1027F0009368416943EA8123936070470268936854
:1028000023F0706393600268936823F040539360F1
:10281000B0E70268536823F400635360CAE700BF5F
:10282000002301400100000F38B310B50446036CCB
:1028300043B1236C13F0100F0BD00120002384F858
:102840003C3010BDFEF7B6FC0023636484F83C30D6
:10285000EFE7236C23F4885323F0020343F00203D1
:1028600023642046FFF746FF00206064236C23F0BA
:10287000030343F001032364E0E7012070470000F5
:1028800030B482B00022019290F83C20012A00F07E
:10289000B6800346012280F83C200A68092A40D904
:1028A0000468E06892B202EB42021E3A4FF0070C55
:1028B0000CFA02F220EA0202E2601C68E0680A8870
:1028C00002EB42021E3A8D6805FA02F20243E26010
:1028D0004A68062A3CD81C68606B02EB8202053A03
:1028E0004FF01F0C0CFA02F220EA020262631C682D
:1028F000606B4A6802EB8202053AB1F800C00CFA3C
:1029000002F20243626318683E4A904250D018684F
:102910003C4A904255D0002083F83C0002B030BCC5
:1029200070470468206992B202EB42024FF0070C34
:102930000CFA02F220EA020222611C6820690A886D
:1029400002EB42028D6805FA02F202432261BFE700
:102950000C2A16D81D68286B02EB8202233A1F242A
:1029600004FA02F220EA02022A631D68286B4A6810
:1029700002EB8202233A0C8804FA02F202432A6331
:10298000C1E71D68E86A02EB8202413A1F2404FA9B
:1029900002F220EA0202EA621D68E86A4A6802EB73
:1029A0008202413A0C8804FA02F20243EA62AAE780
:1029B0000A68122AABD11448426842F4800242608D
:1029C000A5E70A68103A012AA5D80F48426842F4E0
:1029D000000242600A68102A9DD10C4A12680C4914
:1029E000A1FB0212920C02EB82025200019202E061
:1029F000019A013A0192019A002AF9D18BE702204B
:102A00008CE700BF002001400023014008000020A7
:102A100083DE1B434160028002230372704782B051
:102A200084468DE80C00034643F8041B9DE807002C
:102A300083E807000CF1100303AA07CA83E8070024
:102A40000023CCF81C3002B0704738B505460C4660
:102A500001228988A068FFF7FEFB0022218A6069B5
:102A6000FFF7F9FB012323730023237623681B68F8
:102A7000DD622368DD60E56138BD03681A68002304
:102A8000D3620268D360022202730276C361704788
:102A900001804260002303727047016042608360DE
:102AA000009BC36070472DE9F04186B005464FF4A6
:102AB0007A730293012301930DF11702009275229C
:102AC000D02100F087FE9DF81730682B03D001203D
:102AD00006B0BDE8F08100248DF816404FF47A78F6
:102AE000CDF80880012601960DF1160700973346B0
:102AF0006B22D021284600F0BBFD07238DF816304D
:102B0000CDF808800196009733461922D021284637
:102B100000F0AEFD8DF81640CDF8088001960097C4
:102B200033461C22D021284600F0A2FD8DF8164025
:102B3000CDF808800196009733461B22D021284605
:102B400000F096FD2046C3E72DE9F0472DED088BF8
:102B50008AB082468DED020B51EC110B55EC124BF5
:102B60009AED087BB0EE47BAF0EE67BA53EC172B3C
:102B7000FDF772FBDAE9066722462B46FDF724FDD6
:102B800002460B4630463946FDF768FB41EC180B10
:102B9000CAE90601DAE90A899AED10AB22462B460A
:102BA00051EC1A0BFDF710FD06460F46CDE9006704
:102BB0009AED0C6BB0EE469AF0EE669A53EC162B3B
:102BC000FDF74AFBDAE90E6732463B46FDF744FB68
:102BD000DAE90023FDF742FB22462B46FDF7F4FC21
:102BE00002460B4640464946FDF738FB804689467B
:102BF000CAE90A89DDE9002351EC190BFDF72CFB2A
:102C00000A460146CDE9041242EC161B8AED0C6B14
:102C1000DDE9002330463946FDF71EFB41EC190B78
:102C2000CAE90E0122462B46DAE90201FDF7CCFC87
:102C300002460B4651EC1A0BFDF710FB41EC1A0B48
:102C4000CAE91001DAE9042340464946FDF706FBCC
:102C500004460D4602460B4640464946FDF7DEFD5A
:102C600006460F46CDE9066722462B4651EC190B66
:102C7000FDF7D4FD04460D46CDE9084553EC182B6D
:102C8000DDE90201FDF7E8FA02460B46CDE9002333
:102C900030463946FDF798FC02460B4651EC180BBE
:102CA000FDF7DCFA41EC180BCAE90601DDE9002367
:102CB00020462946FDF788FC02460B4651EC1B0BCB
:102CC000FDF7CCFACAE9080132463B464046494680
:102CD000FDF77AFC02460B4640464946FDF7BCFA32
:102CE000CAE90A0132463B46DDE904673046394607
:102CF000FDF76AFC02460B4630463946FDF7ACFA52
:102D0000CAE90C0122462B4640464946FDF75CFCC9
:102D100002460B4651EC190BFDF79EFACAE90E016B
:102D200022462B4630463946FDF74EFC02460B46FE
:102D300051EC1A0BFDF790FACAE91001B0EE480AFF
:102D4000F0EE680A0AB0BDEC088BBDE8F087000021
:102D50002DE9F0472DED068B88B00C464FF47A73C1
:102D600002930E23019304AB009301233B22D02155
:102D700000F030FD9DF810309DF8110040EA03206E
:102D800000B220809DF812309DF8138048EA032895
:102D90000FFA88F8A4F802809DF814309DF8157099
:102DA00047EA03273FB2A7809DF816301B021BB2EB
:102DB0009DF8172043EA02059DF818309DF819A0E8
:102DC0004AEA032A0FFA8AFAA4F820A09DF81A30DA
:102DD0009DF81B9049EA03290FFA89F9A4F822907B
:102DE0009DF81C309DF81D6046EA032636B2A68485
:102DF000FDF780FB0022804BFDF7E6FBC4E90201F2
:102E00004046FDF777FB00227B4BFDF7DDFBC4E975
:102E100004013846FDF76EFB6FA3D3E90023FDF7ED
:102E2000FDFCC4E9060107EE905AF8EEE77ADFED03
:102E3000736A87EEA67ADFED727A77EE277AC4EDB1
:102E4000107A5046FDF756FB65A3D3E90023FDF742
:102E5000E5FCC4E90A014846FDF74CFB60A3D3E951
:102E60000023FDF7DBFCC4E90C013046FDF742FB13
:102E70005BA3D3E90023FDF7D1FCC4E90E01FFF702
:102E8000AFFA604D2B68C01AFDF724FB00225E4BA1
:102E9000FDF7C4FC41EC190BFFF7A2FA2860B4F966
:102EA0000050B4F9048008FB08F005FB0500FDF7AD
:102EB00021FB41EC100B01F0C3FA57EC106B002220
:102EC000002330463946FDF7E7FD002873D1B4F9F9
:102ED0000200FDF70FFB32463B46FDF79FFC41EC3D
:102EE000100B01F0E1FA51EC100B3FA3D3E90023E2
:102EF000FDF76AFB41EC1A0B6D424046FDF7FAFA0A
:102F000041EC180B2846FDF7F5FAB0EE481AF0EE42
:102F1000681A41EC100B01F091FA51EC100B32A33E
:102F2000D3E90023FDF750FB06460F460022374B3E
:102F3000FDF7BCFD30B10022354BD4E91401FDF79B
:102F4000D3FD70B90022324B30463946FDF7CCFD37
:102F5000002833D000222D4BD4E91401FDF7A6FD43
:102F600060B32C4BC3E90667C4E91467D4E91423A2
:102F7000104623F000410022254BFDF7B5FD30B18E
:102F8000D4E90A01024601F10043C4E90A23B0EE84
:102F9000492AF0EE692A94ED0A1BB0EE4A0AF0EED7
:102FA0006A0A1D48FFF7D0FD84ED120B08B0BDEC96
:102FB000068BBDE8F0879FED0EAB9DE7B0EE492A8A
:102FC000F0EE692A94ED0C1B47EC106B1148FFF7EB
:102FD000BBFD84ED140BC9E7000000000029CC40C4
:102FE0000000000000606040F8C1631ADCA54C409E
:102FF00000000000000000000000103F0000AA4395
:10300000B81E12424802002000408F40008056C087
:1030100000805640100000205800002003685A69C4
:1030200012F4806F01D1002070476FF480625A6102
:1030300000230363202280F83D2080F83E30026C9C
:1030400042F00402026480F83C30012070472DE910
:10305000F04107460D4690461E4624E0FFF7C0F9B2
:10306000069BC01AB04200D8EEB900233B63202271
:1030700087F83D2087F83E303A6C42F020023A64EF
:1030800087F83C3001201EE03B689C6925EA040C6F
:103090001FFA8CFCBCFA8CFC4FEA5C1CE04511D199
:1030A000B6F1FF3FDAD1C5F30743012BECD13B6802
:1030B0005B6925EA030C1FFA8CFCBCFA8CFC4FEA16
:1030C0005C1CEBE70020BDE8F0812DE9F0410546EE
:1030D0000E46174698463DE01A6842F400721A60A0
:1030E0002B686FF480625A6100232B63202285F8DD
:1030F0003D2085F83E302A6C42F004022A6485F8AF
:103100003C30012034E0FFF76BF9A0EB0800B84237
:1031100000D8FFB900232B63202285F83D2085F8D5
:103120003E302A6C42F020022A6485F83C300120AF
:103130001EE02B689C6926EA0404A4B2003C18BF78
:103140000124A4B12B685A6912F4806FC4D1B7F17D
:10315000FF3FD8D1C6F30743012BEAD12B685C6946
:1031600026EA0404A4B2003C18BF0124E9E70020C9
:10317000BDE8F08170B504460D46164623685B69CC
:1031800013F0800F1CD12046FFF748FFD0B9B5F1EE
:10319000FF3FF3D0FFF724F9801BA84201D8002D90
:1031A000ECD100232363202284F83D2084F83E30B4
:1031B000226C42F02002226484F83C30012000E0BE
:1031C000002070BD0120FCE72DE9F04385B00446E6
:1031D0000D4691461F46DDF830800D9E0368196844
:1031E00041F4807119600096434600224FF00111AE
:1031F000FFF72DFF60B9236805F0FE051D6133461A
:10320000424626492046FFF760FF68B1012008E0EA
:1032100023681B6813F4807F02D04FF4007323648B
:10322000032005B0BDE8F0830023039323685A69A7
:1032300003929B690393039B324641462046FFF766
:1032400099FF30B9012F0FD123685FFA89F61E610B
:10325000E7E7236C042B01D00120E2E72268136822
:1032600043F400731360F7E723684FEA19221A61E9
:10327000324641462046FFF77DFF20B923685FFABA
:1032800089F61E61CDE7236C042B01D00120C8E72D
:103290002268136843F400731360F7E7020001002B
:1032A0002DE9F04784B004460D46164699460C9F1A
:1032B000DDF834800268136843F4806313600368A8
:1032C000196841F480711960CDF800803B460022F6
:1032D0004FF00111FFF7BBFE70B95FFA85FA236862
:1032E00005F0FE051D6143463A4641492046FFF779
:1032F000ECFE68B1012008E023681B6813F4807FAE
:1033000002D04FF400732364032004B0BDE8F087BB
:103310000023039323685A6903929B690393039BD9
:10332000424639462046FFF725FF80B9B9F1010F23
:1033300018D12368F6B21E61424639462046FFF78F
:1033400019FF68B3236C042B24D00120DDE7236C24
:10335000042B01D00120D8E72268136843F40073DE
:103360001360F7E72368320A1A614246394620465D
:10337000FFF700FF18B92368F6B21E61DCE7236C83
:10338000042B01D00120C0E72268136843F40073C6
:103390001360F7E72268136843F400731360D4E7FF
:1033A0002268136843F480731360CDF800803B46B5
:1033B00000224FF001112046FFF749FE68B922684C
:1033C0004AF00103136143463A4609492046FFF794
:1033D0007CFE002899D0012097E723681B6813F42E
:1033E000807F02D04FF40073236403208DE700BF79
:1033F0000200010070B504460D46164623685B695D
:1034000013F0040F1CD12046FFF708FED0B9B5F128
:10341000FF3FF3D0FEF7E4FF801BA84201D8002D48
:10342000ECD100232363202284F83D2084F83E3031
:10343000226C42F02002226484F83C30012000E03B
:10344000002070BD0120FCE770B505460C4616460D
:103450002B68596911F0400F29D1596911F0100FEB
:1034600015D1FEF7BDFF801BA04201D8002CEFD183
:1034700000232B63202285F83D2085F83E302A6CFE
:1034800042F020022A6485F83C30012070BD6FF0C4
:1034900010025A6100232B63202285F83D2085F815
:1034A0003E302A6C2A6485F83C300120EEE700208B
:1034B000ECE70000002800F0CC8070B5044690F8DE
:1034C0003D30002B77D0242384F83D3022681368E8
:1034D00023F0010313602268136843F40043136070
:1034E0002268136823F400431360FEF7A9FD6268A5
:1034F0005A4B9A4264D85A4B98428CBF00230123FE
:10350000002B40F0A8805749A1FB00318B0C2568A7
:103510006A6822F03F0242EA91426A6021680A6AC0
:1035200022F03F0266684D4DAE424FD8013313433F
:103530000B622168CA6922F44F4222F0FF026568DB
:10354000464B9D424CD8431E6D00B3FBF5F301334F
:1035500040F6FC70034278D0C3F30B031A43CA61F0
:1035600021680B6823F0C003E269206A0243134319
:103570000B6021688B6823F4034323F0FF03226967
:10358000E068024313438B602168CB6823F0FF039C
:103590006269A06902431343CB602268136843F059
:1035A0000103136000202064202384F83D30206351
:1035B00084F83E0070BD80F83C30FDF72FFE82E7B6
:1035C000294B98428CBF0023012399E74FF496754D
:1035D00005FB03F3254DA5FB03539B090133A6E728
:1035E000A668BEB9431E05EB450CB3FBFCF30133E3
:1035F000C3F30B03B3FA83F35B0943BBC6B9431EA2
:1036000005EB4505B3FBF5F30133C3F30B0343F4BB
:103610000043A3E7431E05EB850C0CEB8C0CB3FBBE
:10362000FCF30133C3F30B03B3FA83F35B09E4E761
:10363000431E05EB850505EB8505B3FBF5F301336B
:10364000C3F30B0343F4404388E7042386E70123D5
:1036500084E7012070470120ACE700BFA08601008D
:103660007F841E0083DE1B43FF083D00D34D6210A4
:103670002DE9F04383B004460F46904699460C9ED0
:10368000FEF7AEFE054694F83D00C0B2202803D0F8
:10369000022003B0BDE8F0830095192301224B49B5
:1036A0002046FFF7D4FC002840F0898094F83C3095
:1036B000012B00F08680012384F83C3023681A68CF
:1036C00012F0010F03D11A6842F001021A60226859
:1036D000136823F400631360212384F83D304023F2
:1036E00084F83E30002323640A9B6362BDF82C30CB
:1036F0006385638D2385364BE362019500964B46C7
:10370000424639462046FFF75FFD00285BD1238DF6
:10371000002B35D02A4631462046FFF72BFD20BB33
:10372000626A236812781A61626A531C6362218D8F
:10373000013989B22185638D9BB2013B9BB26385C0
:103740002368586910F0040FE1D00029DFD05278C7
:103750001A61636A01336362238D013B2385638DA4
:103760009BB2013B9BB26385D1E7236C042B01D054
:1037700001208EE72268136843F400731360F7E7B3
:103780002A4631462046FFF735FE50B1236C042B04
:1037900001D001207DE72268136843F400731360B1
:1037A000F7E72268136843F400731360202384F85A
:1037B0003D30002384F83E3084F83C3069E7022035
:1037C00067E7022065E7012063E700BF0200100001
:1037D0000000FFFF2DE9F04387B004460F469046F6
:1037E0009946109EFEF7FCFD054694F83D00C0B2D8
:1037F000202804D00227384607B0BDE8F0830095A2
:103800001923012288492046FFF721FC002840F0B7
:10381000438194F83C30012B00F04081012384F86F
:103820003C3023681A6812F0010F03D11A6842F085
:1038300001021A602268136823F4006313602223D4
:1038400084F83D30402384F83E30002323640E9BEF
:103850006362BDF83C306385638D2385734BE362FF
:10386000019500964B46424639462046FFF718FD23
:103870000746002840F01481238D5BB9029323682A
:103880005A6902929A690292029A1A6842F4007284
:103890001A6075E0012B0AD0022B1AD00023059381
:1038A00023685A6905929B690593059B68E0226825
:1038B000136823F4806313600023039323685A6919
:1038C00003929A690392039A1A6842F400721A608A
:1038D00056E02268136823F480631360226813683B
:1038E00043F4006313600023049323685A6904922D
:1038F0009B690493049B43E02A4631462046FFF728
:10390000A3FD002840F0CE8023681A69636A1A700C
:10391000636A01336362238D013B2385638D9BB210
:10392000013B9BB263852BE0009533460022404962
:103930002046FFF78CFB002840F0B6802268136811
:1039400043F40073136023681A69636A1A70626A29
:10395000531C6362238D013B2385638D9BB2013B26
:103960009BB2638523681B695370636A013363628A
:10397000238D013B2385638D9BB2013B9BB2638505
:10398000238D002B7FD0032B54D8012BB4D0022BD6
:10399000CAD000953346002225492046FFF757FB41
:1039A000002840F083802268136823F4806313604A
:1039B00023681A69636A1A70636A01336362238D2C
:1039C000013B2385638D9BB2013B9BB263850095D0
:1039D0003346002216492046FFF739FB002867D1FD
:1039E0002268136843F40073136023681A69636ADA
:1039F0001A70626A531C6362238D013B2385638DB9
:103A00009BB2013B9BB2638523681B695370636A59
:103A100001336362238D013B2385638D9BB2013BA0
:103A20009BB26385ACE700BF020010000000FFFFFF
:103A3000040001002A4631462046FFF705FD002814
:103A400038D123681A69636A1A70626A531C636208
:103A5000238D013B2385638D9BB2013B9BB2638524
:103A60002368596911F0040F8AD01B695370636A87
:103A700001336362238D013B2385638D9BB2013B40
:103A80009BB263857CE7202384F83D30002384F8D3
:103A90003E3084F83C30AEE60227ACE60227AAE6C8
:103AA0000127A8E60127A6E60127A4E60127A2E64A
:103AB0000127A0E601279EE6DFF834D00D480E4925
:103AC0000E4A002302E0D458C4500433C4188C4278
:103AD000F9D30B4A0B4C002301E013600432A242DD
:103AE000FBD3FEF7FDFD00F039F8FDF733FA704720
:103AF000008001200000002000010020804F00080D
:103B00000001002098030020FEE700000EB400B57D
:103B10009CB01DAB029006906FF0004109480791E0
:103B20000491094953F8042B05910068019302A9F7
:103B300000F07EF9029B00221A701CB05DF804EBC5
:103B400003B07047A00000200802FFFF02440346B4
:103B5000934200D1704703F8011BF9E770B50D4D92
:103B60000D4C641BA4100026A64209D10B4D0C4C31
:103B700001F082F9641BA4100026A64205D170BD95
:103B800055F8043B98470136EEE755F8043B984753
:103B90000136F2E7784F0008784F0008784F0008A8
:103BA0007C4F00087047704738B50546002941D062
:103BB00051F8043C0C1F002BB8BFE41800F0D0F8FB
:103BC0001D4A136833B9636014602846BDE8384065
:103BD00000F0CCB8A34208D9206821188B4201BF5D
:103BE00019685B6809182160EDE71A465B680BB13C
:103BF000A342FAD911685018A0420BD120680144A1
:103C0000501883421160E0D118685B685360084423
:103C10001060DAE702D90C232B60D6E72068211860
:103C20008B4204BF19685B68636004BF0918216098
:103C30005460CAE738BD00BF9003002070B50F4E36
:103C40000C463168054611B900F0A4FB30602146EE
:103C5000284600F09FFB431C03D14FF0FF34204661
:103C600070BDC41C24F00304A042F8D0211A2846D9
:103C700000F090FB0130F2D1EFE700BF8C03002091
:103C8000F8B5CD1C25F0030508350C2D38BF0C25E3
:103C9000002D064601DBA94203D90C233360002026
:103CA000F8BD2E4F00F05CF83B681C4634BB29463B
:103CB0003046FFF7C3FF431C04464DD13C68214604
:103CC000002940D1002C41D023683046E71800F08D
:103CD00061FB87423AD123680335ED1A25F00305CD
:103CE00008350C2D38BF0C2529463046FFF7A6FFB6
:103CF00001302BD023682B4423600EE02268521B36
:103D00001ED40B2A16D96119A342256018BF596029
:103D1000636808BF396062514B60304600F026F896
:103D200004F10B00231D20F00700C21A1CBF1B1A50
:103D3000A350B5E76268A3420CBF3A605A60ECE753
:103D400023466468B2E70C464968B9E70C23336040
:103D5000304600F00BF8A2E70560DEE79003002094
:103D60000148FFF71FBF00BF880300200148FFF78D
:103D70001ABF00BF880300202DE9F0478E681F4658
:103D8000BE420B6882460C4690462DD8B1F90C20F5
:103D900012F4906F26D06569096905EB4505A3EB20
:103DA000010905EBD5757B1C4B446D109D4238BF56
:103DB0001D46530527D52946FFF762FF064660B327
:103DC00021694A4600F0F6FAA38923F4906343F090
:103DD0008003A381266165614E44A5EB0905266039
:103DE000A5603E46BE4200D93E4620683246414666
:103DF00000F0B6FAA3689B1BA360236833442360DA
:103E00000020BDE8F0872A4600F0E2FA06460028C6
:103E1000E0D121695046FFF7C7FE0C23CAF80030F5
:103E2000A38943F04003A3814FF0FF30E9E700008E
:103E30002DE9F04F98468B891B069DB007460D462D
:103E4000144610D50B6973B94021FFF719FF28609C
:103E5000286130B90C233B604FF0FF301DB0BDE846
:103E6000F08F40236B610023099320238DF82930C4
:103E7000CDF80C803023DFF89C818DF82A304FF08C
:103E8000010923469A4613F8012B0AB1252AF9D1D4
:103E9000BAEB040B0BD05B46224629463846FFF7A7
:103EA0006BFF013000F0A780099A5A4409929AF8F2
:103EB0000030002B00F09F8000234FF0FF32CDE94F
:103EC00005230AF1010A049307938DF853301A93DE
:103ED0005446052214F8011B4E48FCF769F9049A70
:103EE000D8B9D00644BF20238DF85330110744BF02
:103EF0002B238DF853309AF800302A2B15D0079ACF
:103F0000544600204FF00A0C214611F8013B303B8B
:103F1000092B4BD9B0B1079214E0A0EB080309FAC2
:103F200003F313430493A246D2E7039B191D1B68B6
:103F30000391002BBBBF5B4242F002020793079341
:103F4000B8BF049223782E2B0AD163782A2B32D162
:103F5000039B1A1D1B68039243EAE3730234059323
:103F6000DFF8C0A0217803225046FCF721F938B1D0
:103F7000049BA0EB0A0040228240134301340493C7
:103F800014F8011B24488DF828100622FCF710F9BC
:103F9000002836D0214B1BBB039B073323F00703BC
:103FA00008330393099B334409936AE70CFB0232FD
:103FB0000C460120A8E700230134059319464FF071
:103FC0000A0C204610F8012B303A092A03D9002B9D
:103FD000C6D00591C4E70CFB012104460123F0E79C
:103FE00003AB00932A460E4B04A93846AFF300807A
:103FF000421C0646D6D1AB895B063FF52DAF09982A
:104000002CE703AB00932A46054B04A9384600F081
:1040100079F8EDE7C84E0008D24E00080000000015
:10402000793D0008CE4E00082DE9F0471646984627
:104030008A680B69DDF820909342B8BF134633605D
:1040400091F8432007460C460AB1013333602368D8
:10405000990642BF336802333360256815F00605C0
:1040600006D104F1190AE36832689B1AAB4226DCD8
:1040700094F843302268003B18BF012392062BD4EA
:1040800004F1430241463846C84701301ED0236838
:10409000226903F00603042B02BFE5683368ED1ABA
:1040A000A3680CBF25EAE57500259342C4BF9B1A9F
:1040B000ED1800261A34B5421AD1002008E0012379
:1040C000524641463846C847013003D14FF0FF30D1
:1040D000BDE8F0870135C6E7E1185A1C302081F8A9
:1040E0004300224494F8451082F843100233C7E796
:1040F0000123224641463846C8470130E6D0013602
:10410000D9E700002DE9FF470F7E0C9D782F9146DF
:1041100080460C469A4601F1430207D8622F0AD81E
:10412000002F00F0E080582F00F0BB8004F1420621
:1041300084F842703AE0A7F16303152BF6D801A189
:1041400051F823F09D410008B14100082D410008BD
:104150002D4100082D4100082D410008B141000803
:104160002D4100082D4100082D4100082D41000877
:10417000CD42000841420008834200082D4100085A
:104180002D410008EF4200082D410008414200087F
:104190002D4100082D4100088B4200082B681A1D94
:1041A0001B682A6004F1420684F842300123ABE028
:1041B000236829681F0601F10400286001D50D68F5
:1041C00003E05E06FBD5B1F900506168002D7ADA94
:1041D0002D20002984F84300A1602DDA5E486D424D
:1041E0000A231646B5FBF3F103FB1157C75D06F82A
:1041F000017D2F46BB420D46F4D9082B0BD1236815
:10420000DF0708D5236961689942DEBF302306F8CD
:10421000013C06F1FF36921B2261CDF800A04B460F
:1042200003AA21464046FFF7FFFE013071D14FF04F
:10423000FF3004B0BDE8F08723F004032360CDE72E
:104240002B682068191D2960050601D51D6802E04C
:104250004106FBD51D8840486F2F14BF0A23082351
:10426000002184F843106668A660002EB9DB21683F
:1042700021F004012160002DB3D1002EB1D11646EA
:10428000BBE7236843F0200323603448782784F891
:104290004570296823680E1D2E601E0603D50D6823
:1042A00004E02D48F3E75D06F9D50D88D90744BF32
:1042B00043F0200323600DB11023D1E7236823F0DE
:1042C00020032360F8E724480A23CCE72B682668FC
:1042D0006169181D286035061B6801D5196002E068
:1042E0007006FBD5198000232361164695E72B68DD
:1042F0001A1D2A601E68626800213046FBF758FFCD
:1043000008B1801B606063682361002384F8433038
:1043100083E72369324649464046D047013086D07C
:1043200023689B0714D4E068039B9842B8BF1846E3
:104330007FE70123324649464046D04701303FF4EB
:1043400076AF0135E36803995B1AAB42F1DCEAE72B
:10435000002504F11906F5E7D94E0008EA4E0008D9
:10436000884210B501EB020402D98442234607D8E3
:10437000431EA14208D011F8012B03F8012FF8E7E2
:10438000024401468A4200D110BD13F8014D02F8E3
:10439000014DF7E738B5064D0023044608462B606B
:1043A00000F0F8FB431C02D12B6803B1236038BD39
:1043B000840300200A44914200F1FF3300D170478A
:1043C00010B511F8014B03F8014F9142F9D110BD1E
:1043D0002DE9F041804615460C4621B9BDE8F04173
:1043E0001146FFF74DBC2AB9FFF7DEFB002420463B
:1043F000BDE8F08100F01AF88542064602D8B5EB18
:10440000500FF4D829464046FFF73AFC07460028EB
:10441000ECD0B5422A46214628BF3246FFF7CAFFF4
:1044200021464046FFF7C0FB3C46E0E751F8043C1C
:10443000181F002BBCBF0B58C018704700F0D4BA2F
:1044400038B52DED028B55EC104B00F0D1F922461A
:104450002B4620462946B0EE408AF0EE608AFCF7F3
:104460004DFB30B90022002320462946FCF71EFBF5
:1044700030B9B0EE480AF0EE680ABDEC028B38BDE8
:1044800000F0F4FC002200232121016010461946AF
:10449000FCF7C4F941EC180BB0EE480AF0EE680ADC
:1044A000BDEC028B38BD00BF2DE9F84F55EC104B29
:1044B000C14B25F000469E42AA4617D9BF4B9E42EB
:1044C0000AD807D0BAF1000F40F3CA809FED9E0BC7
:1044D000BDE8F88F002CF5D022462B462046294611
:1044E000FBF7BCFE41EC100BBDE8F88FB44B9E42CD
:1044F00000F2BA80A3F1DE739E4240F2A0804FF03A
:10450000FF3B22462B4620462946FCF75DF8024633
:104510000B4680468946FCF757F88DA3D3E9002364
:1045200006460F46FCF750F88BA3D3E90023FBF7B0
:1045300095FE32463B46FCF747F889A3D3E90023B2
:10454000FBF78CFE32463B46FCF73EF886A3D3E9E8
:104550000023FBF783FE32463B46FCF735F884A385
:10456000D3E90023FBF77AFE32463B46FCF72CF8F2
:1045700081A3D3E90023FBF771FE42464B46FCF7CB
:1045800023F87FA3D3E90023804689463046394685
:10459000FCF71AF87CA3D3E90023FBF75DFE324653
:1045A0003B46FCF711F87AA3D3E90023FBF754FE4E
:1045B00032463B46FCF708F877A3D3E90023FBF724
:1045C0004BFE32463B46FBF7FFFF75A3D3E90023C2
:1045D000FBF742FE32463B46FBF7F6FFBBF1FF3FDF
:1045E00002460B46404649465FD0FBF737FE754E04
:1045F00022462B46FBF7E8FF734B06EBCB064FEA50
:10460000CB0B5B44D3E90023FBF726FE22462B4667
:10461000FBF722FE02460B46D6E90001FBF71CFE23
:10462000BAF1000F41EC100BBFF65EAF10EE901A1E
:10463000024601F1004343EC102BBDE8F88F5AA36A
:10464000D3E9002320462946FBF708FE5F4B0022F2
:10465000FCF74AFA00283FF452AF45EC104B43E711
:104660009FED530BBDE8F88F00F0BAF8584B9E420F
:1046700055EC104B29D8A3F550239E4252D8224620
:104680002B4620462946FBF7E9FD504B0022FBF75D
:10469000E3FD02460B462046294614461D464FF0D0
:1046A000000B00224FF0804326E0FBF7D7FD2246A7
:1046B0002B46FBF789FF02460B4620462946FBF7AF
:1046C000CBFD41EC100BBDE8F88F424B9E421ED251
:1046D000414B002220462946FBF7BEFD02460B4611
:1046E0002046294614461D4600223B4B4FF0020B44
:1046F000FBF76AFF354B0022FBF7B0FD02460B4685
:1047000020462946FCF78AF804460D46F9E622467B
:104710002B4632490020FCF781F84FF0030B04468A
:104720000D46EEE6294B002220462946FBF794FD74
:1047300002460B46204629464FF0010B14461D4603
:10474000D8E700BFAFF30080182D4454FB21F93F98
:1047500011DA22E33AAD903FEB0D76244B7BA93F73
:10476000513DD0A0660DB13F6E204CC5CD45B73F41
:10477000FF8300922449C23F0D5555555555D53FED
:104780002F6C6A2C44B4A2BF9AFDDE522DDEAD3FE1
:104790006D9A74AFF2B0B33F711623FEC671BC3F81
:1047A000C4EB98999999C93F9C7500883CE4377E81
:1047B000182D4454FB21F9BFFFFF0F440000F07F88
:1047C000FFFFDB3F204F0008004F00080000F03FD4
:1047D000FFFFF23F008003400000F83F0000F0BF01
:1047E00051EC100B024621F0004343EC102B7047B4
:1047F0002DE9F84F784855EC104BA84300F0A880FD
:10480000002D21462B46224655DD2C1500F0D28086
:10481000C3F31303E107A4F2FF3743F4801303D477
:10482000D10F01EB430352005B00002603EBD27370
:104830007F1052001624B4464FF400110CEB010017
:10484000834203DB1B1A01EB000C0E445B00013CAE
:1048500003EBD2734FEA51014FEA4202EED1A04678
:1048600020254FF000400AE03CD0590001EBD27106
:10487000013D0B464FEA42024FEA50003ED09C45B4
:1048800008EB000EF0DABEF1000F0EEB00080CDBB7
:10489000E146A3EB0C01964588BF01F1FF314900C9
:1048A000CC46A2EB0E020444E0E7B8F1000FEFDBC8
:1048B0000CF10109EDE725F00040204342D0002D26
:1048C0006DD1D10A153B52050029FAD0CE021C4603
:1048D00010460B466FD520254FF0FF31E840641A93
:1048E000034395E7964502D94FEA4C01BEE7BEF176
:1048F000000F0EEB000827DB0021D2E7114312D096
:10490000DFF8D8A0DFF8D8B0DAE90001DBE900234E
:10491000FBF7A2FCDAE9008902460B46404649460D
:10492000FCF7CEF810BB65087110F30701F17F5159
:1049300001F5001148BF45F0004501EB07532A4639
:1049400043EC102BBDE8F88FB8F1000FB0DAD3E7D5
:1049500022462B4620462946FBF736FE22462B46AA
:10496000FBF77CFC41EC100BBDE8F88FB4F1FF3F86
:10497000DAE90001DBE9002329D0FBF76FFCDAE973
:10498000008902460B4640464946FCF78FF800B3C3
:10499000A21C04F1020508BF01366D08C4E72046D9
:1049A0002946FBF759FC02460B46FBF737FF41EC63
:1049B000100BC7E7084600225B00DD02114602F13A
:1049C0000102F9D5C2F1200500FA02F286E70136AC
:1049D000AAE70134A7E700BF0000F07FF80000203D
:1049E000F00000200000000051EC110B43422DE9C3
:1049F000F0470343644E21F0004E4EEAD373B342B6
:104A000055EC104B40D86342234325F0004A4AEA54
:104A1000D373B342A046A94636D801F1404303F50B
:104A20008013034302463ED08F1707F002075AEA6D
:104A3000080847EAD5772FD05EEA020237D0B6459C
:104A400044D0B24533D0AAEB0E0ABAF1747F4FEAD4
:104A50002A5338DA002945DA3C3343DA9FED3C0B20
:104A6000012F5DD0022F4AD0A7B151EC100B3AA311
:104A7000D3E90023FBF7F0FB39A3D3E90023FBF7CD
:104A8000EBFB41EC100B05E022462B46FBF7E6FB67
:104A900041EC100BBDE8F087022F0ED0032FF9D1A7
:104AA0009FED310BF6E7BDE8F047FFF7FDBCB9F12C
:104AB000000F05DB9FED2E0BECE79FED290BE9E7DF
:104AC0009FED2D0BE6E79FED2A0BC9E7F24507F1B5
:104AD000FF372ED0022F34D82C4B03EBC70393EDB6
:104AE000000BD7E702460B4620462946FBF796FE09
:104AF00041EC100BFFF774FEFFF7D6FCB0E716A3EE
:104B0000D3E9002351EC100BFBF7A6FB02460B4642
:104B100013A1D1E90001FBF79FFB41EC100BB9E7B2
:104B200010EE901A53EC102B01F1004343EC102BC4
:104B3000B0E7022F08D8164B03EBC70393ED000B29
:104B4000A8E79FED030BA5E79FED0D0BA2E700BFC4
:104B50000000000000000000075C143326A6A13C02
:104B6000182D4454FB210940182D4454FB2109C041
:104B7000182D4454FB21F93F182D4454FB21F9BF53
:104B8000182D4454FB21E93F0000F07F404F0008FE
:104B9000584F0008044A05491368002B08BF0B460C
:104BA00018441060184670479403002098030020B2
:104BB0002DE9F047089D0C46002B4ED194468C45BC
:104BC0008646B2FA82F262D94AB1C2F1200391401C
:104BD00020FA03F30CFA02FC194300FA02FE4FEA32
:104BE0001C471FFA8CF6B1FBF7F44FEA1E4307FB94
:104BF000141143EA014304FB06F199420AD91CEB64
:104C0000030304F1FF3080F01381994240F21081D8
:104C1000023C6344591A1FFA8EF3B1FBF7F007FB0D
:104C2000101143EA014300FB06F69E420AD91CEB31
:104C3000030300F1FF3180F0FD809E4240F2FA80D4
:104C4000634402389B1B40EA044000211DB1D3405D
:104C50000022C5E90032BDE8F0878B4205D90DB1CD
:104C6000C5E9000100210846F5E7B3FA83F1002900
:104C700046D1A34202D39042C0F0F180861A64EB81
:104C800003030120002DE6D0C5E90063E3E7002A15
:104C900040F09180A1EB0C044FEA1C481FFA8CF7FE
:104CA0000121B4FBF8F64FEA1E4308FB164443EA21
:104CB000044307FB06F0984208D91CEB030306F1F6
:104CC000FF3402D2984200F2CE8026461C1A1FFA08
:104CD0008EF3B4FBF8F008FB104443EA044300FBF6
:104CE00007F79F4208D91CEB030300F1FF3402D2FF
:104CF0009F4200F2B1802046DB1B40EA0640A5E758
:104D0000C1F120068B4022FA06F71F4320FA06FC69
:104D100004FA01F343EA0C03F44000FA01F8380CFA
:104D20004FEA1349B4FBF0FE1FFA87FC00FB1E4458
:104D300049EA04440EFB0CF9A14502FA01F20AD932
:104D40003C190EF1FF3A80F08580A14540F2828047
:104D5000AEF1020E3C44A4EB09041FFA83F9B4FB44
:104D6000F0F300FB134449EA044403FB0CFCA445A4
:104D700007D93C1903F1FF3068D2A44566D9023B3C
:104D80003C4443EA0E40A0FB0293A4EB0C049C427B
:104D9000CE469C4652D34FD055B1B8EB0E0364EBD0
:104DA0000C0404FA06F6CB40CC401E43C5E900646F
:104DB0000021BDE8F087C2F1200320FA03F10CFACC
:104DC00002FC24FA03F394400C434FEA1C4800FA17
:104DD00002FE1FFA8CF7B3FBF8F008FB1031230C2E
:104DE00043EA014300FB07F1994208D91CEB030396
:104DF00000F1FF362CD299422AD9023863445B1A5B
:104E0000A4B2B3FBF8F108FB113344EA034401FBFD
:104E100007F3A34208D91CEB040401F1FF3613D2B7
:104E2000A34211D902396444E41A41EA004138E747
:104E30000446EFE6084605E7C845ADD2B9EB020ED9
:104E400063EB070C0138A7E73146EDE7034698E727
:104E50003046D4E7D6467EE7634402384CE7064640
:104E6000234608460EE7023E63442FE7014B1868CD
:104E7000704700BFA0000020F8B500BFF8BC08BC18
:104E80009E467047F8B500BFF8BC08BC9E46704708
:104E900050697463683A202D25752E25750D0A001A
:104EA00050697463683A2025752E25750D0A000037
:104EB00000000000010203040000000000000000E8
:104EC0000102030406070809232D302B2000686C1B
:104ED0004C0065666745464700303132333435361D
:104EE0003738394142434445460030313233343556
:104EF000363738396162636465660000000000007F
:104F0000E2652F227F2B7A3C075C143326A6813C76
:104F1000BDCBF07A8807703C075C143326A6913C21
:104F20004FBB610567ACDD3F182D4454FB21E93FC1
:104F30009BF681D20B73EF3F182D4454FB21F93FB0
:104F40000000000000000080182D4454FB2109409F
:104F5000182D4454FB2109C0182D4454FB21E9BFEE
:104F6000D221337F7CD90240D221337F7CD902C049
:084F700030B2FF7F01000000D8
:044F7800050C00081C
:044F7C00DD0B000841
:104F800001000000100000000024F40000000000F8
:104F9000000000E04D62503F000000C07493683F85
:104FA000000000E051B89E3F00000000000000003B
:104FB00000000000000000000000000000000000F1
:104FC00000000000000000000000000000000000E1
:104FD0000000000000000000000000E04D62503FB3
:104FE000000000C07493683F000000E051B89E3F8D
:104FF00000000000000000000000000000000000B1
:1050000000000000000000000000000000000000A0
:105010000000000000000000000000000000000090
:10502000A4000020000000004C020020B402002078
:105030001C03002000000000000000000000000031
:105040000000000000000000000000000000000060
:105050000000000000000000000000000000000050
:105060000000000000000000000000000000000040
:1050700059F3F8C21F6EA501000000000000F03FC8
:0400000508003AB9FC
:00000001FF
